{
  "_format": "hh-sol-artifact-1",
  "contractName": "TreasuryTokenBuybackDistributor",
  "sourceName": "contracts/helpers/TreasuryTokenBuybackDistributor.sol",
  "abi": [
    {
      "inputs": [
        {
          "internalType": "address",
          "name": "btcbBuyback_",
          "type": "address"
        },
        {
          "internalType": "address",
          "name": "ethBuyback_",
          "type": "address"
        },
        {
          "internalType": "address",
          "name": "xvsBuyback_",
          "type": "address"
        },
        {
          "internalType": "address",
          "name": "usdtBuyback_",
          "type": "address"
        },
        {
          "internalType": "address",
          "name": "usdcBuyback_",
          "type": "address"
        },
        {
          "internalType": "address",
          "name": "uBuyback_",
          "type": "address"
        },
        {
          "internalType": "address",
          "name": "vai_",
          "type": "address"
        },
        {
          "internalType": "address",
          "name": "vaiPsm_",
          "type": "address"
        },
        {
          "internalType": "address",
          "name": "stableToken_",
          "type": "address"
        }
      ],
      "stateMutability": "nonpayable",
      "type": "constructor"
    },
    {
      "inputs": [],
      "name": "OnlySelf",
      "type": "error"
    },
    {
      "inputs": [
        {
          "internalType": "uint256",
          "name": "sum",
          "type": "uint256"
        }
      ],
      "name": "WeightsMisconfigured",
      "type": "error"
    },
    {
      "inputs": [],
      "name": "ZeroAddressNotAllowed",
      "type": "error"
    },
    {
      "anonymous": false,
      "inputs": [
        {
          "indexed": true,
          "internalType": "address",
          "name": "token",
          "type": "address"
        },
        {
          "indexed": false,
          "internalType": "uint256",
          "name": "totalAmount",
          "type": "uint256"
        }
      ],
      "name": "TokenDistributed",
      "type": "event"
    },
    {
      "anonymous": false,
      "inputs": [
        {
          "indexed": false,
          "internalType": "uint256",
          "name": "vaiIn",
          "type": "uint256"
        },
        {
          "indexed": false,
          "internalType": "uint256",
          "name": "stableOut",
          "type": "uint256"
        }
      ],
      "name": "VaiConvertedViaPsm",
      "type": "event"
    },
    {
      "inputs": [],
      "name": "BTCB_BUYBACK",
      "outputs": [
        {
          "internalType": "address",
          "name": "",
          "type": "address"
        }
      ],
      "stateMutability": "view",
      "type": "function"
    },
    {
      "inputs": [],
      "name": "BTCB_WEIGHT",
      "outputs": [
        {
          "internalType": "uint256",
          "name": "",
          "type": "uint256"
        }
      ],
      "stateMutability": "view",
      "type": "function"
    },
    {
      "inputs": [],
      "name": "ETH_BUYBACK",
      "outputs": [
        {
          "internalType": "address",
          "name": "",
          "type": "address"
        }
      ],
      "stateMutability": "view",
      "type": "function"
    },
    {
      "inputs": [],
      "name": "ETH_WEIGHT",
      "outputs": [
        {
          "internalType": "uint256",
          "name": "",
          "type": "uint256"
        }
      ],
      "stateMutability": "view",
      "type": "function"
    },
    {
      "inputs": [],
      "name": "MAX_BPS",
      "outputs": [
        {
          "internalType": "uint256",
          "name": "",
          "type": "uint256"
        }
      ],
      "stateMutability": "view",
      "type": "function"
    },
    {
      "inputs": [],
      "name": "STABLE_TOKEN",
      "outputs": [
        {
          "internalType": "address",
          "name": "",
          "type": "address"
        }
      ],
      "stateMutability": "view",
      "type": "function"
    },
    {
      "inputs": [],
      "name": "USDC_BUYBACK",
      "outputs": [
        {
          "internalType": "address",
          "name": "",
          "type": "address"
        }
      ],
      "stateMutability": "view",
      "type": "function"
    },
    {
      "inputs": [],
      "name": "USDC_WEIGHT",
      "outputs": [
        {
          "internalType": "uint256",
          "name": "",
          "type": "uint256"
        }
      ],
      "stateMutability": "view",
      "type": "function"
    },
    {
      "inputs": [],
      "name": "USDT_BUYBACK",
      "outputs": [
        {
          "internalType": "address",
          "name": "",
          "type": "address"
        }
      ],
      "stateMutability": "view",
      "type": "function"
    },
    {
      "inputs": [],
      "name": "USDT_WEIGHT",
      "outputs": [
        {
          "internalType": "uint256",
          "name": "",
          "type": "uint256"
        }
      ],
      "stateMutability": "view",
      "type": "function"
    },
    {
      "inputs": [],
      "name": "U_BUYBACK",
      "outputs": [
        {
          "internalType": "address",
          "name": "",
          "type": "address"
        }
      ],
      "stateMutability": "view",
      "type": "function"
    },
    {
      "inputs": [],
      "name": "U_WEIGHT",
      "outputs": [
        {
          "internalType": "uint256",
          "name": "",
          "type": "uint256"
        }
      ],
      "stateMutability": "view",
      "type": "function"
    },
    {
      "inputs": [],
      "name": "VAI",
      "outputs": [
        {
          "internalType": "address",
          "name": "",
          "type": "address"
        }
      ],
      "stateMutability": "view",
      "type": "function"
    },
    {
      "inputs": [],
      "name": "VAI_PSM",
      "outputs": [
        {
          "internalType": "address",
          "name": "",
          "type": "address"
        }
      ],
      "stateMutability": "view",
      "type": "function"
    },
    {
      "inputs": [],
      "name": "XVS_BUYBACK",
      "outputs": [
        {
          "internalType": "address",
          "name": "",
          "type": "address"
        }
      ],
      "stateMutability": "view",
      "type": "function"
    },
    {
      "inputs": [],
      "name": "XVS_WEIGHT",
      "outputs": [
        {
          "internalType": "uint256",
          "name": "",
          "type": "uint256"
        }
      ],
      "stateMutability": "view",
      "type": "function"
    },
    {
      "inputs": [],
      "name": "_convertVaiViaPsm",
      "outputs": [],
      "stateMutability": "nonpayable",
      "type": "function"
    },
    {
      "inputs": [],
      "name": "convertVaiViaPsm",
      "outputs": [],
      "stateMutability": "nonpayable",
      "type": "function"
    },
    {
      "inputs": [
        {
          "internalType": "address[]",
          "name": "tokens",
          "type": "address[]"
        }
      ],
      "name": "distribute",
      "outputs": [],
      "stateMutability": "nonpayable",
      "type": "function"
    }
  ],
  "bytecode": "0x6101a060405234801561001157600080fd5b5060405161179c38038061179c83398101604081905261003091610174565b6100398961012e565b6100428861012e565b61004b8761012e565b6100548661012e565b61005d8561012e565b6100668461012e565b61006f8361012e565b6100788261012e565b6100818161012e565b6000610bb86105dc806103e8610097828061021c565b6100a1919061021c565b6100ab919061021c565b6100b5919061021c565b6100bf919061021c565b905061271081146100ea5760405163df51230b60e01b81526004810182905260240160405180910390fd5b506001600160a01b0398891660805296881660a05294871660c05292861660e052908516610100528416610120528316610140528216610160521661018052610243565b6001600160a01b038116610155576040516342bcdf7f60e11b815260040160405180910390fd5b50565b80516001600160a01b038116811461016f57600080fd5b919050565b60008060008060008060008060006101208a8c03121561019357600080fd5b61019c8a610158565b98506101aa60208b01610158565b97506101b860408b01610158565b96506101c660608b01610158565b95506101d460808b01610158565b94506101e260a08b01610158565b93506101f060c08b01610158565b92506101fe60e08b01610158565b915061020d6101008b01610158565b90509295985092959850929598565b8082018082111561023d57634e487b7160e01b600052601160045260246000fd5b92915050565b60805160a05160c05160e051610100516101205161014051610160516101805161149c6103006000396000818161029601526106450152600081816102bd0152818161049001528181610741015261081a0152600081816102e401526103f901526000818161015b0152610cd40152600081816102540152610c740152600081816101dd0152610c410152600081816101ac0152610c0e0152600081816102240152610bdb01526000818161030b0152610b80015261149c6000f3fe608060405234801561001057600080fd5b50600436106101515760003560e01c80634cb30a31116100cd5780637754f8871161008157806398f44cd11161006657806398f44cd1146102df578063f2ee9cad14610306578063fd967f471461032d57600080fd5b80637754f887146102915780639686062b146102b857600080fd5b806358e2693e116100b257806358e2693e146102765780636138889b1461027e57806371a91eeb1461021657600080fd5b80634cb30a3114610216578063520cfe021461024f57600080fd5b8063171ac456116101245780633b80711f116101095780633b80711f1461021f5780633e1cf4b6146102165780634906e9841461024657600080fd5b8063171ac456146101ff57806335228cf51461021657600080fd5b8063087c8f851461015657806308cb4215146101a75780630c982808146101ce5780630d3e43de146101d8575b600080fd5b61017d7f000000000000000000000000000000000000000000000000000000000000000081565b60405173ffffffffffffffffffffffffffffffffffffffff90911681526020015b60405180910390f35b61017d7f000000000000000000000000000000000000000000000000000000000000000081565b6101d6610336565b005b61017d7f000000000000000000000000000000000000000000000000000000000000000081565b6102086103e881565b60405190815260200161019e565b6102086105dc81565b61017d7f000000000000000000000000000000000000000000000000000000000000000081565b610208610bb881565b61017d7f000000000000000000000000000000000000000000000000000000000000000081565b6101d6610392565b6101d661028c3660046111ec565b610922565b61017d7f000000000000000000000000000000000000000000000000000000000000000081565b61017d7f000000000000000000000000000000000000000000000000000000000000000081565b61017d7f000000000000000000000000000000000000000000000000000000000000000081565b61017d7f000000000000000000000000000000000000000000000000000000000000000081565b61020861271081565b3073ffffffffffffffffffffffffffffffffffffffff166358e2693e6040518163ffffffff1660e01b8152600401600060405180830381600087803b15801561037e57600080fd5b505af192505050801561038f575060015b50565b3330146103cb576040517f14d4a4e800000000000000000000000000000000000000000000000000000000815260040160405180910390fd5b6040517f70a082310000000000000000000000000000000000000000000000000000000081523060048201527f00000000000000000000000000000000000000000000000000000000000000009060009073ffffffffffffffffffffffffffffffffffffffff8316906370a0823190602401602060405180830381865afa15801561045a573d6000803e3d6000fd5b505050506040513d601f19601f8201168201806040525081019061047e9190611261565b90508060000361048c575050565b60007f0000000000000000000000000000000000000000000000000000000000000000905060008173ffffffffffffffffffffffffffffffffffffffff16630696819f6040518163ffffffff1660e01b8152600401602060405180830381865afa1580156104fe573d6000803e3d6000fd5b505050506040513d601f19601f820116820180604052508101906105229190611261565b905060008273ffffffffffffffffffffffffffffffffffffffff1663572ca9e76040518163ffffffff1660e01b8152600401602060405180830381865afa158015610571573d6000803e3d6000fd5b505050506040513d601f19601f820116820180604052508101906105959190611261565b905060008373ffffffffffffffffffffffffffffffffffffffff16637dc0d1d06040518163ffffffff1660e01b8152600401602060405180830381865afa1580156105e4573d6000803e3d6000fd5b505050506040513d601f19601f82011682018060405250810190610608919061129c565b6040517f41976e0900000000000000000000000000000000000000000000000000000000815273ffffffffffffffffffffffffffffffffffffffff7f00000000000000000000000000000000000000000000000000000000000000008116600483015291909116906341976e0990602401602060405180830381865afa158015610696573d6000803e3d6000fd5b505050506040513d601f19601f820116820180604052508101906106ba9190611261565b905060008282116106cb57826106cd565b815b90506000816106de866127106112ef565b6106e89190611302565b670de0b6b3a76400006106fd6127108a611302565b6107079190611302565b6107119190611319565b905080600003610725575050505050505050565b61076673ffffffffffffffffffffffffffffffffffffffff89167f00000000000000000000000000000000000000000000000000000000000000008961096b565b6040517f0d35d2ed0000000000000000000000000000000000000000000000000000000081523060048201526024810182905273ffffffffffffffffffffffffffffffffffffffff871690630d35d2ed906044016020604051808303816000875af11580156107d9573d6000803e3d6000fd5b505050506040513d601f19601f820116820180604052508101906107fd9190611261565b5061084073ffffffffffffffffffffffffffffffffffffffff89167f0000000000000000000000000000000000000000000000000000000000000000600061096b565b6040517f70a0823100000000000000000000000000000000000000000000000000000000815230600482015260009073ffffffffffffffffffffffffffffffffffffffff8a16906370a0823190602401602060405180830381865afa1580156108ad573d6000803e3d6000fd5b505050506040513d601f19601f820116820180604052508101906108d19190611261565b6108db9089611354565b60408051828152602081018590529192507fb8f7f775ff1d2c9c1e7d2166ef767a09e250e716b91a2000378381c54d2b1e79910160405180910390a1505050505050505050565b8060005b818110156109655761095d84848381811061094357610943611367565b90506020020160208101906109589190611396565b610ad9565b600101610926565b50505050565b6040805173ffffffffffffffffffffffffffffffffffffffff8416602482015260448082018490528251808303909101815260649091019091526020810180517bffffffffffffffffffffffffffffffffffffffffffffffffffffffff167f095ea7b3000000000000000000000000000000000000000000000000000000001790526109f78482610dab565b6109655760405173ffffffffffffffffffffffffffffffffffffffff8416602482015260006044820152610acf9085907f095ea7b300000000000000000000000000000000000000000000000000000000906064015b604080517fffffffffffffffffffffffffffffffffffffffffffffffffffffffffffffffe08184030181529190526020810180517bffffffffffffffffffffffffffffffffffffffffffffffffffffffff167fffffffff0000000000000000000000000000000000000000000000000000000090931692909217909152610e6e565b6109658482610e6e565b6040517f70a08231000000000000000000000000000000000000000000000000000000008152306004820152819060009073ffffffffffffffffffffffffffffffffffffffff8316906370a0823190602401602060405180830381865afa158015610b48573d6000803e3d6000fd5b505050506040513d601f19601f82011682018060405250810190610b6c9190611261565b905080600003610b7b57505050565b610bd67f0000000000000000000000000000000000000000000000000000000000000000612710610bae6105dc85611302565b610bb89190611319565b73ffffffffffffffffffffffffffffffffffffffff85169190610f87565b610c097f0000000000000000000000000000000000000000000000000000000000000000612710610bae6105dc85611302565b610c3c7f0000000000000000000000000000000000000000000000000000000000000000612710610bae6103e885611302565b610c6f7f0000000000000000000000000000000000000000000000000000000000000000612710610bae6105dc85611302565b610ca27f0000000000000000000000000000000000000000000000000000000000000000612710610bae6105dc85611302565b6040517f70a08231000000000000000000000000000000000000000000000000000000008152306004820152610d56907f00000000000000000000000000000000000000000000000000000000000000009073ffffffffffffffffffffffffffffffffffffffff8516906370a0823190602401602060405180830381865afa158015610d32573d6000803e3d6000fd5b505050506040513d601f19601f82011682018060405250810190610bb89190611261565b8273ffffffffffffffffffffffffffffffffffffffff167ff6f55ada4fbb9e2bc6813f97e749a30067f3c13a200ce783269b50e6419e8f6482604051610d9e91815260200190565b60405180910390a2505050565b60008060008473ffffffffffffffffffffffffffffffffffffffff1684604051610dd591906113d7565b6000604051808303816000865af19150503d8060008114610e12576040519150601f19603f3d011682016040523d82523d6000602084013e610e17565b606091505b5091509150818015610e41575080511580610e41575080806020019051810190610e4191906113f3565b8015610e63575073ffffffffffffffffffffffffffffffffffffffff85163b15155b925050505b92915050565b6000610ed0826040518060400160405280602081526020017f5361666545524332303a206c6f772d6c6576656c2063616c6c206661696c65648152508573ffffffffffffffffffffffffffffffffffffffff16610fdd9092919063ffffffff16565b9050805160001480610ef1575080806020019051810190610ef191906113f3565b610f82576040517f08c379a000000000000000000000000000000000000000000000000000000000815260206004820152602a60248201527f5361666545524332303a204552433230206f7065726174696f6e20646964206e60448201527f6f7420737563636565640000000000000000000000000000000000000000000060648201526084015b60405180910390fd5b505050565b60405173ffffffffffffffffffffffffffffffffffffffff8316602482015260448101829052610f829084907fa9059cbb0000000000000000000000000000000000000000000000000000000090606401610a4d565b6060610fec8484600085610ff4565b949350505050565b606082471015611086576040517f08c379a000000000000000000000000000000000000000000000000000000000815260206004820152602660248201527f416464726573733a20696e73756666696369656e742062616c616e636520666f60448201527f722063616c6c00000000000000000000000000000000000000000000000000006064820152608401610f79565b6000808673ffffffffffffffffffffffffffffffffffffffff1685876040516110af91906113d7565b60006040518083038185875af1925050503d80600081146110ec576040519150601f19603f3d011682016040523d82523d6000602084013e6110f1565b606091505b50915091506111028783838761110d565b979650505050505050565b606083156111a357825160000361119c5773ffffffffffffffffffffffffffffffffffffffff85163b61119c576040517f08c379a000000000000000000000000000000000000000000000000000000000815260206004820152601d60248201527f416464726573733a2063616c6c20746f206e6f6e2d636f6e74726163740000006044820152606401610f79565b5081610fec565b610fec83838151156111b85781518083602001fd5b806040517f08c379a0000000000000000000000000000000000000000000000000000000008152600401610f799190611415565b600080602083850312156111ff57600080fd5b823567ffffffffffffffff8082111561121757600080fd5b818501915085601f83011261122b57600080fd5b81358181111561123a57600080fd5b8660208260051b850101111561124f57600080fd5b60209290920196919550909350505050565b60006020828403121561127357600080fd5b5051919050565b73ffffffffffffffffffffffffffffffffffffffff8116811461038f57600080fd5b6000602082840312156112ae57600080fd5b81516112b98161127a565b9392505050565b7f4e487b7100000000000000000000000000000000000000000000000000000000600052601160045260246000fd5b80820180821115610e6857610e686112c0565b8082028115828204841417610e6857610e686112c0565b60008261134f577f4e487b7100000000000000000000000000000000000000000000000000000000600052601260045260246000fd5b500490565b81810381811115610e6857610e686112c0565b7f4e487b7100000000000000000000000000000000000000000000000000000000600052603260045260246000fd5b6000602082840312156113a857600080fd5b81356112b98161127a565b60005b838110156113ce5781810151838201526020016113b6565b50506000910152565b600082516113e98184602087016113b3565b9190910192915050565b60006020828403121561140557600080fd5b815180151581146112b957600080fd5b60208152600082518060208401526114348160408501602087016113b3565b601f017fffffffffffffffffffffffffffffffffffffffffffffffffffffffffffffffe016919091016040019291505056fea2646970667358221220bb8241f814a09b5d373b40c1cdf1d5dc54796825db15e0edae9b6835278dae8e64736f6c63430008190033",
  "linkReferences": {},
  "deployedLinkReferences": {}
}