{
  "_format": "hh-sol-artifact-1",
  "contractName": "TreasuryTokenBuybackDistributor",
  "sourceName": "contracts/helpers/TreasuryTokenBuybackDistributor.sol",
  "abi": [
    {
      "inputs": [
        {
          "internalType": "address",
          "name": "btcbBuyback_",
          "type": "address"
        },
        {
          "internalType": "address",
          "name": "ethBuyback_",
          "type": "address"
        },
        {
          "internalType": "address",
          "name": "xvsBuyback_",
          "type": "address"
        },
        {
          "internalType": "address",
          "name": "usdtBuyback_",
          "type": "address"
        },
        {
          "internalType": "address",
          "name": "usdcBuyback_",
          "type": "address"
        },
        {
          "internalType": "address",
          "name": "uBuyback_",
          "type": "address"
        },
        {
          "internalType": "address",
          "name": "vai_",
          "type": "address"
        },
        {
          "internalType": "address",
          "name": "vaiPsm_",
          "type": "address"
        },
        {
          "internalType": "address",
          "name": "stableToken_",
          "type": "address"
        },
        {
          "internalType": "address",
          "name": "treasury_",
          "type": "address"
        }
      ],
      "stateMutability": "nonpayable",
      "type": "constructor"
    },
    {
      "inputs": [],
      "name": "OnlySelf",
      "type": "error"
    },
    {
      "inputs": [
        {
          "internalType": "uint256",
          "name": "sum",
          "type": "uint256"
        }
      ],
      "name": "WeightsMisconfigured",
      "type": "error"
    },
    {
      "inputs": [],
      "name": "ZeroAddressNotAllowed",
      "type": "error"
    },
    {
      "anonymous": false,
      "inputs": [
        {
          "indexed": true,
          "internalType": "address",
          "name": "token",
          "type": "address"
        },
        {
          "indexed": false,
          "internalType": "uint256",
          "name": "totalAmount",
          "type": "uint256"
        }
      ],
      "name": "TokenDistributed",
      "type": "event"
    },
    {
      "anonymous": false,
      "inputs": [
        {
          "indexed": false,
          "internalType": "uint256",
          "name": "vaiIn",
          "type": "uint256"
        },
        {
          "indexed": false,
          "internalType": "uint256",
          "name": "stableOut",
          "type": "uint256"
        }
      ],
      "name": "VaiConvertedViaPsm",
      "type": "event"
    },
    {
      "inputs": [],
      "name": "BTCB_BUYBACK",
      "outputs": [
        {
          "internalType": "address",
          "name": "",
          "type": "address"
        }
      ],
      "stateMutability": "view",
      "type": "function"
    },
    {
      "inputs": [],
      "name": "BTCB_WEIGHT",
      "outputs": [
        {
          "internalType": "uint256",
          "name": "",
          "type": "uint256"
        }
      ],
      "stateMutability": "view",
      "type": "function"
    },
    {
      "inputs": [],
      "name": "ETH_BUYBACK",
      "outputs": [
        {
          "internalType": "address",
          "name": "",
          "type": "address"
        }
      ],
      "stateMutability": "view",
      "type": "function"
    },
    {
      "inputs": [],
      "name": "ETH_WEIGHT",
      "outputs": [
        {
          "internalType": "uint256",
          "name": "",
          "type": "uint256"
        }
      ],
      "stateMutability": "view",
      "type": "function"
    },
    {
      "inputs": [],
      "name": "MAX_BPS",
      "outputs": [
        {
          "internalType": "uint256",
          "name": "",
          "type": "uint256"
        }
      ],
      "stateMutability": "view",
      "type": "function"
    },
    {
      "inputs": [],
      "name": "STABLE_TOKEN",
      "outputs": [
        {
          "internalType": "address",
          "name": "",
          "type": "address"
        }
      ],
      "stateMutability": "view",
      "type": "function"
    },
    {
      "inputs": [],
      "name": "TREASURY",
      "outputs": [
        {
          "internalType": "address",
          "name": "",
          "type": "address"
        }
      ],
      "stateMutability": "view",
      "type": "function"
    },
    {
      "inputs": [],
      "name": "USDC_BUYBACK",
      "outputs": [
        {
          "internalType": "address",
          "name": "",
          "type": "address"
        }
      ],
      "stateMutability": "view",
      "type": "function"
    },
    {
      "inputs": [],
      "name": "USDC_WEIGHT",
      "outputs": [
        {
          "internalType": "uint256",
          "name": "",
          "type": "uint256"
        }
      ],
      "stateMutability": "view",
      "type": "function"
    },
    {
      "inputs": [],
      "name": "USDT_BUYBACK",
      "outputs": [
        {
          "internalType": "address",
          "name": "",
          "type": "address"
        }
      ],
      "stateMutability": "view",
      "type": "function"
    },
    {
      "inputs": [],
      "name": "USDT_WEIGHT",
      "outputs": [
        {
          "internalType": "uint256",
          "name": "",
          "type": "uint256"
        }
      ],
      "stateMutability": "view",
      "type": "function"
    },
    {
      "inputs": [],
      "name": "U_BUYBACK",
      "outputs": [
        {
          "internalType": "address",
          "name": "",
          "type": "address"
        }
      ],
      "stateMutability": "view",
      "type": "function"
    },
    {
      "inputs": [],
      "name": "U_WEIGHT",
      "outputs": [
        {
          "internalType": "uint256",
          "name": "",
          "type": "uint256"
        }
      ],
      "stateMutability": "view",
      "type": "function"
    },
    {
      "inputs": [],
      "name": "VAI",
      "outputs": [
        {
          "internalType": "address",
          "name": "",
          "type": "address"
        }
      ],
      "stateMutability": "view",
      "type": "function"
    },
    {
      "inputs": [],
      "name": "VAI_PSM",
      "outputs": [
        {
          "internalType": "address",
          "name": "",
          "type": "address"
        }
      ],
      "stateMutability": "view",
      "type": "function"
    },
    {
      "inputs": [],
      "name": "XVS_BUYBACK",
      "outputs": [
        {
          "internalType": "address",
          "name": "",
          "type": "address"
        }
      ],
      "stateMutability": "view",
      "type": "function"
    },
    {
      "inputs": [],
      "name": "XVS_WEIGHT",
      "outputs": [
        {
          "internalType": "uint256",
          "name": "",
          "type": "uint256"
        }
      ],
      "stateMutability": "view",
      "type": "function"
    },
    {
      "inputs": [],
      "name": "_convertVaiViaPsm",
      "outputs": [],
      "stateMutability": "nonpayable",
      "type": "function"
    },
    {
      "inputs": [],
      "name": "convertVaiViaPsm",
      "outputs": [],
      "stateMutability": "nonpayable",
      "type": "function"
    },
    {
      "inputs": [
        {
          "internalType": "address[]",
          "name": "tokens",
          "type": "address[]"
        }
      ],
      "name": "distribute",
      "outputs": [],
      "stateMutability": "nonpayable",
      "type": "function"
    }
  ],
  "bytecode": "0x6101c060405234801561001157600080fd5b5060405161183338038061183383398101604081905261003091610183565b6100398a61013d565b6100428961013d565b61004b8861013d565b6100548761013d565b61005d8661013d565b6100668561013d565b61006f8461013d565b6100788361013d565b6100818261013d565b61008a8161013d565b6000610bb86105dc806103e86100a0828061023d565b6100aa919061023d565b6100b4919061023d565b6100be919061023d565b6100c8919061023d565b905061271081146100f35760405163df51230b60e01b81526004810182905260240160405180910390fd5b506001600160a01b03998a1660805297891660a05295881660c05293871660e05291861661010052851661012052841661014052831661016052821661018052166101a052610264565b6001600160a01b038116610164576040516342bcdf7f60e11b815260040160405180910390fd5b50565b80516001600160a01b038116811461017e57600080fd5b919050565b6000806000806000806000806000806101408b8d0312156101a357600080fd5b6101ac8b610167565b99506101ba60208c01610167565b98506101c860408c01610167565b97506101d660608c01610167565b96506101e460808c01610167565b95506101f260a08c01610167565b945061020060c08c01610167565b935061020e60e08c01610167565b925061021d6101008c01610167565b915061022c6101208c01610167565b90509295989b9194979a5092959850565b8082018082111561025e57634e487b7160e01b600052601160045260246000fd5b92915050565b60805160a05160c05160e05161010051610120516101405161016051610180516101a0516115006103336000396000818161023601526107e50152600081816102d801526106870152600081816102ff015281816104d201528181610783015261087e015260008181610326015261043b0152600081816101760152610d380152600081816102960152610cd80152600081816101f80152610ca50152600081816101c70152610c720152600081816102660152610c3f01526000818161034d0152610be401526115006000f3fe608060405234801561001057600080fd5b506004361061016c5760003560e01c80634cb30a31116100cd5780637754f8871161008157806398f44cd11161006657806398f44cd114610321578063f2ee9cad14610348578063fd967f471461036f57600080fd5b80637754f887146102d35780639686062b146102fa57600080fd5b806358e2693e116100b257806358e2693e146102b85780636138889b146102c057806371a91eeb1461025857600080fd5b80634cb30a3114610258578063520cfe021461029157600080fd5b80632d2c5565116101245780633b80711f116101095780633b80711f146102615780633e1cf4b6146102585780634906e9841461028857600080fd5b80632d2c55651461023157806335228cf51461025857600080fd5b80630c982808116101555780630c982808146101e95780630d3e43de146101f3578063171ac4561461021a57600080fd5b8063087c8f851461017157806308cb4215146101c2575b600080fd5b6101987f000000000000000000000000000000000000000000000000000000000000000081565b60405173ffffffffffffffffffffffffffffffffffffffff90911681526020015b60405180910390f35b6101987f000000000000000000000000000000000000000000000000000000000000000081565b6101f1610378565b005b6101987f000000000000000000000000000000000000000000000000000000000000000081565b6102236103e881565b6040519081526020016101b9565b6101987f000000000000000000000000000000000000000000000000000000000000000081565b6102236105dc81565b6101987f000000000000000000000000000000000000000000000000000000000000000081565b610223610bb881565b6101987f000000000000000000000000000000000000000000000000000000000000000081565b6101f16103d4565b6101f16102ce366004611250565b610986565b6101987f000000000000000000000000000000000000000000000000000000000000000081565b6101987f000000000000000000000000000000000000000000000000000000000000000081565b6101987f000000000000000000000000000000000000000000000000000000000000000081565b6101987f000000000000000000000000000000000000000000000000000000000000000081565b61022361271081565b3073ffffffffffffffffffffffffffffffffffffffff166358e2693e6040518163ffffffff1660e01b8152600401600060405180830381600087803b1580156103c057600080fd5b505af19250505080156103d1575060015b50565b33301461040d576040517f14d4a4e800000000000000000000000000000000000000000000000000000000815260040160405180910390fd5b6040517f70a082310000000000000000000000000000000000000000000000000000000081523060048201527f00000000000000000000000000000000000000000000000000000000000000009060009073ffffffffffffffffffffffffffffffffffffffff8316906370a0823190602401602060405180830381865afa15801561049c573d6000803e3d6000fd5b505050506040513d601f19601f820116820180604052508101906104c091906112c5565b9050806000036104ce575050565b60007f0000000000000000000000000000000000000000000000000000000000000000905060008173ffffffffffffffffffffffffffffffffffffffff16630696819f6040518163ffffffff1660e01b8152600401602060405180830381865afa158015610540573d6000803e3d6000fd5b505050506040513d601f19601f8201168201806040525081019061056491906112c5565b905060008273ffffffffffffffffffffffffffffffffffffffff1663572ca9e76040518163ffffffff1660e01b8152600401602060405180830381865afa1580156105b3573d6000803e3d6000fd5b505050506040513d601f19601f820116820180604052508101906105d791906112c5565b905060008373ffffffffffffffffffffffffffffffffffffffff16637dc0d1d06040518163ffffffff1660e01b8152600401602060405180830381865afa158015610626573d6000803e3d6000fd5b505050506040513d601f19601f8201168201806040525081019061064a9190611300565b6040517f41976e0900000000000000000000000000000000000000000000000000000000815273ffffffffffffffffffffffffffffffffffffffff7f00000000000000000000000000000000000000000000000000000000000000008116600483015291909116906341976e0990602401602060405180830381865afa1580156106d8573d6000803e3d6000fd5b505050506040513d601f19601f820116820180604052508101906106fc91906112c5565b9050600082821161070d578261070f565b815b905060008161072086612710611353565b61072a9190611366565b670de0b6b3a764000061073f6127108a611366565b6107499190611366565b610753919061137d565b905080600003610767575050505050505050565b6107a873ffffffffffffffffffffffffffffffffffffffff89167f0000000000000000000000000000000000000000000000000000000000000000896109cf565b6040517f0d35d2ed00000000000000000000000000000000000000000000000000000000815273ffffffffffffffffffffffffffffffffffffffff7f00000000000000000000000000000000000000000000000000000000000000008116600483015260248201839052871690630d35d2ed906044016020604051808303816000875af115801561083d573d6000803e3d6000fd5b505050506040513d601f19601f8201168201806040525081019061086191906112c5565b506108a473ffffffffffffffffffffffffffffffffffffffff89167f000000000000000000000000000000000000000000000000000000000000000060006109cf565b6040517f70a0823100000000000000000000000000000000000000000000000000000000815230600482015260009073ffffffffffffffffffffffffffffffffffffffff8a16906370a0823190602401602060405180830381865afa158015610911573d6000803e3d6000fd5b505050506040513d601f19601f8201168201806040525081019061093591906112c5565b61093f90896113b8565b60408051828152602081018590529192507fb8f7f775ff1d2c9c1e7d2166ef767a09e250e716b91a2000378381c54d2b1e79910160405180910390a1505050505050505050565b8060005b818110156109c9576109c18484838181106109a7576109a76113cb565b90506020020160208101906109bc91906113fa565b610b3d565b60010161098a565b50505050565b6040805173ffffffffffffffffffffffffffffffffffffffff8416602482015260448082018490528251808303909101815260649091019091526020810180517bffffffffffffffffffffffffffffffffffffffffffffffffffffffff167f095ea7b300000000000000000000000000000000000000000000000000000000179052610a5b8482610e0f565b6109c95760405173ffffffffffffffffffffffffffffffffffffffff8416602482015260006044820152610b339085907f095ea7b300000000000000000000000000000000000000000000000000000000906064015b604080517fffffffffffffffffffffffffffffffffffffffffffffffffffffffffffffffe08184030181529190526020810180517bffffffffffffffffffffffffffffffffffffffffffffffffffffffff167fffffffff0000000000000000000000000000000000000000000000000000000090931692909217909152610ed2565b6109c98482610ed2565b6040517f70a08231000000000000000000000000000000000000000000000000000000008152306004820152819060009073ffffffffffffffffffffffffffffffffffffffff8316906370a0823190602401602060405180830381865afa158015610bac573d6000803e3d6000fd5b505050506040513d601f19601f82011682018060405250810190610bd091906112c5565b905080600003610bdf57505050565b610c3a7f0000000000000000000000000000000000000000000000000000000000000000612710610c126105dc85611366565b610c1c919061137d565b73ffffffffffffffffffffffffffffffffffffffff85169190610feb565b610c6d7f0000000000000000000000000000000000000000000000000000000000000000612710610c126105dc85611366565b610ca07f0000000000000000000000000000000000000000000000000000000000000000612710610c126103e885611366565b610cd37f0000000000000000000000000000000000000000000000000000000000000000612710610c126105dc85611366565b610d067f0000000000000000000000000000000000000000000000000000000000000000612710610c126105dc85611366565b6040517f70a08231000000000000000000000000000000000000000000000000000000008152306004820152610dba907f00000000000000000000000000000000000000000000000000000000000000009073ffffffffffffffffffffffffffffffffffffffff8516906370a0823190602401602060405180830381865afa158015610d96573d6000803e3d6000fd5b505050506040513d601f19601f82011682018060405250810190610c1c91906112c5565b8273ffffffffffffffffffffffffffffffffffffffff167ff6f55ada4fbb9e2bc6813f97e749a30067f3c13a200ce783269b50e6419e8f6482604051610e0291815260200190565b60405180910390a2505050565b60008060008473ffffffffffffffffffffffffffffffffffffffff1684604051610e39919061143b565b6000604051808303816000865af19150503d8060008114610e76576040519150601f19603f3d011682016040523d82523d6000602084013e610e7b565b606091505b5091509150818015610ea5575080511580610ea5575080806020019051810190610ea59190611457565b8015610ec7575073ffffffffffffffffffffffffffffffffffffffff85163b15155b925050505b92915050565b6000610f34826040518060400160405280602081526020017f5361666545524332303a206c6f772d6c6576656c2063616c6c206661696c65648152508573ffffffffffffffffffffffffffffffffffffffff166110419092919063ffffffff16565b9050805160001480610f55575080806020019051810190610f559190611457565b610fe6576040517f08c379a000000000000000000000000000000000000000000000000000000000815260206004820152602a60248201527f5361666545524332303a204552433230206f7065726174696f6e20646964206e60448201527f6f7420737563636565640000000000000000000000000000000000000000000060648201526084015b60405180910390fd5b505050565b60405173ffffffffffffffffffffffffffffffffffffffff8316602482015260448101829052610fe69084907fa9059cbb0000000000000000000000000000000000000000000000000000000090606401610ab1565b60606110508484600085611058565b949350505050565b6060824710156110ea576040517f08c379a000000000000000000000000000000000000000000000000000000000815260206004820152602660248201527f416464726573733a20696e73756666696369656e742062616c616e636520666f60448201527f722063616c6c00000000000000000000000000000000000000000000000000006064820152608401610fdd565b6000808673ffffffffffffffffffffffffffffffffffffffff168587604051611113919061143b565b60006040518083038185875af1925050503d8060008114611150576040519150601f19603f3d011682016040523d82523d6000602084013e611155565b606091505b509150915061116687838387611171565b979650505050505050565b606083156112075782516000036112005773ffffffffffffffffffffffffffffffffffffffff85163b611200576040517f08c379a000000000000000000000000000000000000000000000000000000000815260206004820152601d60248201527f416464726573733a2063616c6c20746f206e6f6e2d636f6e74726163740000006044820152606401610fdd565b5081611050565b611050838381511561121c5781518083602001fd5b806040517f08c379a0000000000000000000000000000000000000000000000000000000008152600401610fdd9190611479565b6000806020838503121561126357600080fd5b823567ffffffffffffffff8082111561127b57600080fd5b818501915085601f83011261128f57600080fd5b81358181111561129e57600080fd5b8660208260051b85010111156112b357600080fd5b60209290920196919550909350505050565b6000602082840312156112d757600080fd5b5051919050565b73ffffffffffffffffffffffffffffffffffffffff811681146103d157600080fd5b60006020828403121561131257600080fd5b815161131d816112de565b9392505050565b7f4e487b7100000000000000000000000000000000000000000000000000000000600052601160045260246000fd5b80820180821115610ecc57610ecc611324565b8082028115828204841417610ecc57610ecc611324565b6000826113b3577f4e487b7100000000000000000000000000000000000000000000000000000000600052601260045260246000fd5b500490565b81810381811115610ecc57610ecc611324565b7f4e487b7100000000000000000000000000000000000000000000000000000000600052603260045260246000fd5b60006020828403121561140c57600080fd5b813561131d816112de565b60005b8381101561143257818101518382015260200161141a565b50506000910152565b6000825161144d818460208701611417565b9190910192915050565b60006020828403121561146957600080fd5b8151801515811461131d57600080fd5b6020815260008251806020840152611498816040850160208701611417565b601f017fffffffffffffffffffffffffffffffffffffffffffffffffffffffffffffffe016919091016040019291505056fea2646970667358221220cb255802d903f4debc541838de9b95dcd6f299e6cd12d9222ab2f1a8b52805d764736f6c63430008190033",
  "linkReferences": {},
  "deployedLinkReferences": {}
}