{
  "_format": "hh-sol-artifact-1",
  "contractName": "DiamondConsolidated",
  "sourceName": "contracts/Comptroller/Diamond/DiamondConsolidated.sol",
  "abi": [
    {
      "anonymous": false,
      "inputs": [
        {
          "indexed": true,
          "internalType": "contract VToken",
          "name": "vToken",
          "type": "address"
        },
        {
          "indexed": true,
          "internalType": "enum ComptrollerTypes.Action",
          "name": "action",
          "type": "uint8"
        },
        {
          "indexed": false,
          "internalType": "bool",
          "name": "pauseState",
          "type": "bool"
        }
      ],
      "name": "ActionPausedMarket",
      "type": "event"
    },
    {
      "anonymous": false,
      "inputs": [
        {
          "indexed": false,
          "internalType": "bool",
          "name": "state",
          "type": "bool"
        }
      ],
      "name": "ActionProtocolPaused",
      "type": "event"
    },
    {
      "anonymous": false,
      "inputs": [
        {
          "indexed": true,
          "internalType": "address",
          "name": "borrower",
          "type": "address"
        },
        {
          "indexed": true,
          "internalType": "address",
          "name": "delegate",
          "type": "address"
        },
        {
          "indexed": false,
          "internalType": "bool",
          "name": "allowDelegatedBorrows",
          "type": "bool"
        }
      ],
      "name": "DelegateUpdated",
      "type": "event"
    },
    {
      "anonymous": false,
      "inputs": [
        {
          "components": [
            {
              "internalType": "address",
              "name": "facetAddress",
              "type": "address"
            },
            {
              "internalType": "enum IDiamondCut.FacetCutAction",
              "name": "action",
              "type": "uint8"
            },
            {
              "internalType": "bytes4[]",
              "name": "functionSelectors",
              "type": "bytes4[]"
            }
          ],
          "indexed": false,
          "internalType": "struct IDiamondCut.FacetCut[]",
          "name": "_diamondCut",
          "type": "tuple[]"
        }
      ],
      "name": "DiamondCut",
      "type": "event"
    },
    {
      "anonymous": false,
      "inputs": [
        {
          "indexed": true,
          "internalType": "contract VToken",
          "name": "vToken",
          "type": "address"
        },
        {
          "indexed": true,
          "internalType": "address",
          "name": "borrower",
          "type": "address"
        },
        {
          "indexed": false,
          "internalType": "uint256",
          "name": "venusDelta",
          "type": "uint256"
        },
        {
          "indexed": false,
          "internalType": "uint256",
          "name": "venusBorrowIndex",
          "type": "uint256"
        }
      ],
      "name": "DistributedBorrowerVenus",
      "type": "event"
    },
    {
      "anonymous": false,
      "inputs": [
        {
          "indexed": true,
          "internalType": "contract VToken",
          "name": "vToken",
          "type": "address"
        },
        {
          "indexed": true,
          "internalType": "address",
          "name": "supplier",
          "type": "address"
        },
        {
          "indexed": false,
          "internalType": "uint256",
          "name": "venusDelta",
          "type": "uint256"
        },
        {
          "indexed": false,
          "internalType": "uint256",
          "name": "venusSupplyIndex",
          "type": "uint256"
        }
      ],
      "name": "DistributedSupplierVenus",
      "type": "event"
    },
    {
      "anonymous": false,
      "inputs": [
        {
          "indexed": false,
          "internalType": "uint256",
          "name": "amount",
          "type": "uint256"
        }
      ],
      "name": "DistributedVAIVaultVenus",
      "type": "event"
    },
    {
      "anonymous": false,
      "inputs": [
        {
          "indexed": false,
          "internalType": "uint256",
          "name": "error",
          "type": "uint256"
        },
        {
          "indexed": false,
          "internalType": "uint256",
          "name": "info",
          "type": "uint256"
        },
        {
          "indexed": false,
          "internalType": "uint256",
          "name": "detail",
          "type": "uint256"
        }
      ],
      "name": "Failure",
      "type": "event"
    },
    {
      "anonymous": false,
      "inputs": [
        {
          "indexed": true,
          "internalType": "address",
          "name": "borrower",
          "type": "address"
        },
        {
          "indexed": true,
          "internalType": "address",
          "name": "vToken",
          "type": "address"
        },
        {
          "indexed": false,
          "internalType": "bool",
          "name": "enable",
          "type": "bool"
        }
      ],
      "name": "IsForcedLiquidationEnabledForUserUpdated",
      "type": "event"
    },
    {
      "anonymous": false,
      "inputs": [
        {
          "indexed": true,
          "internalType": "address",
          "name": "vToken",
          "type": "address"
        },
        {
          "indexed": false,
          "internalType": "bool",
          "name": "enable",
          "type": "bool"
        }
      ],
      "name": "IsForcedLiquidationEnabledUpdated",
      "type": "event"
    },
    {
      "anonymous": false,
      "inputs": [
        {
          "indexed": true,
          "internalType": "contract VToken",
          "name": "vToken",
          "type": "address"
        },
        {
          "indexed": true,
          "internalType": "address",
          "name": "account",
          "type": "address"
        }
      ],
      "name": "MarketEntered",
      "type": "event"
    },
    {
      "anonymous": false,
      "inputs": [
        {
          "indexed": true,
          "internalType": "contract VToken",
          "name": "vToken",
          "type": "address"
        },
        {
          "indexed": true,
          "internalType": "address",
          "name": "account",
          "type": "address"
        }
      ],
      "name": "MarketExited",
      "type": "event"
    },
    {
      "anonymous": false,
      "inputs": [
        {
          "indexed": true,
          "internalType": "contract VToken",
          "name": "vToken",
          "type": "address"
        }
      ],
      "name": "MarketListed",
      "type": "event"
    },
    {
      "anonymous": false,
      "inputs": [
        {
          "indexed": false,
          "internalType": "address",
          "name": "oldAccessControlAddress",
          "type": "address"
        },
        {
          "indexed": false,
          "internalType": "address",
          "name": "newAccessControlAddress",
          "type": "address"
        }
      ],
      "name": "NewAccessControl",
      "type": "event"
    },
    {
      "anonymous": false,
      "inputs": [
        {
          "indexed": true,
          "internalType": "contract VToken",
          "name": "vToken",
          "type": "address"
        },
        {
          "indexed": false,
          "internalType": "uint256",
          "name": "newBorrowCap",
          "type": "uint256"
        }
      ],
      "name": "NewBorrowCap",
      "type": "event"
    },
    {
      "anonymous": false,
      "inputs": [
        {
          "indexed": false,
          "internalType": "uint256",
          "name": "oldCloseFactorMantissa",
          "type": "uint256"
        },
        {
          "indexed": false,
          "internalType": "uint256",
          "name": "newCloseFactorMantissa",
          "type": "uint256"
        }
      ],
      "name": "NewCloseFactor",
      "type": "event"
    },
    {
      "anonymous": false,
      "inputs": [
        {
          "indexed": true,
          "internalType": "contract VToken",
          "name": "vToken",
          "type": "address"
        },
        {
          "indexed": false,
          "internalType": "uint256",
          "name": "oldCollateralFactorMantissa",
          "type": "uint256"
        },
        {
          "indexed": false,
          "internalType": "uint256",
          "name": "newCollateralFactorMantissa",
          "type": "uint256"
        }
      ],
      "name": "NewCollateralFactor",
      "type": "event"
    },
    {
      "anonymous": false,
      "inputs": [
        {
          "indexed": false,
          "internalType": "address",
          "name": "oldComptrollerLens",
          "type": "address"
        },
        {
          "indexed": false,
          "internalType": "address",
          "name": "newComptrollerLens",
          "type": "address"
        }
      ],
      "name": "NewComptrollerLens",
      "type": "event"
    },
    {
      "anonymous": false,
      "inputs": [
        {
          "indexed": false,
          "internalType": "uint256",
          "name": "oldLiquidationIncentiveMantissa",
          "type": "uint256"
        },
        {
          "indexed": false,
          "internalType": "uint256",
          "name": "newLiquidationIncentiveMantissa",
          "type": "uint256"
        }
      ],
      "name": "NewLiquidationIncentive",
      "type": "event"
    },
    {
      "anonymous": false,
      "inputs": [
        {
          "indexed": false,
          "internalType": "address",
          "name": "oldLiquidatorContract",
          "type": "address"
        },
        {
          "indexed": false,
          "internalType": "address",
          "name": "newLiquidatorContract",
          "type": "address"
        }
      ],
      "name": "NewLiquidatorContract",
      "type": "event"
    },
    {
      "anonymous": false,
      "inputs": [
        {
          "indexed": false,
          "internalType": "address",
          "name": "oldPauseGuardian",
          "type": "address"
        },
        {
          "indexed": false,
          "internalType": "address",
          "name": "newPauseGuardian",
          "type": "address"
        }
      ],
      "name": "NewPauseGuardian",
      "type": "event"
    },
    {
      "anonymous": false,
      "inputs": [
        {
          "indexed": false,
          "internalType": "contract PriceOracle",
          "name": "oldPriceOracle",
          "type": "address"
        },
        {
          "indexed": false,
          "internalType": "contract PriceOracle",
          "name": "newPriceOracle",
          "type": "address"
        }
      ],
      "name": "NewPriceOracle",
      "type": "event"
    },
    {
      "anonymous": false,
      "inputs": [
        {
          "indexed": false,
          "internalType": "contract IPrime",
          "name": "oldPrimeToken",
          "type": "address"
        },
        {
          "indexed": false,
          "internalType": "contract IPrime",
          "name": "newPrimeToken",
          "type": "address"
        }
      ],
      "name": "NewPrimeToken",
      "type": "event"
    },
    {
      "anonymous": false,
      "inputs": [
        {
          "indexed": true,
          "internalType": "contract VToken",
          "name": "vToken",
          "type": "address"
        },
        {
          "indexed": false,
          "internalType": "uint256",
          "name": "newSupplyCap",
          "type": "uint256"
        }
      ],
      "name": "NewSupplyCap",
      "type": "event"
    },
    {
      "anonymous": false,
      "inputs": [
        {
          "indexed": false,
          "internalType": "address",
          "name": "oldTreasuryAddress",
          "type": "address"
        },
        {
          "indexed": false,
          "internalType": "address",
          "name": "newTreasuryAddress",
          "type": "address"
        }
      ],
      "name": "NewTreasuryAddress",
      "type": "event"
    },
    {
      "anonymous": false,
      "inputs": [
        {
          "indexed": false,
          "internalType": "address",
          "name": "oldTreasuryGuardian",
          "type": "address"
        },
        {
          "indexed": false,
          "internalType": "address",
          "name": "newTreasuryGuardian",
          "type": "address"
        }
      ],
      "name": "NewTreasuryGuardian",
      "type": "event"
    },
    {
      "anonymous": false,
      "inputs": [
        {
          "indexed": false,
          "internalType": "uint256",
          "name": "oldTreasuryPercent",
          "type": "uint256"
        },
        {
          "indexed": false,
          "internalType": "uint256",
          "name": "newTreasuryPercent",
          "type": "uint256"
        }
      ],
      "name": "NewTreasuryPercent",
      "type": "event"
    },
    {
      "anonymous": false,
      "inputs": [
        {
          "indexed": false,
          "internalType": "contract VAIControllerInterface",
          "name": "oldVAIController",
          "type": "address"
        },
        {
          "indexed": false,
          "internalType": "contract VAIControllerInterface",
          "name": "newVAIController",
          "type": "address"
        }
      ],
      "name": "NewVAIController",
      "type": "event"
    },
    {
      "anonymous": false,
      "inputs": [
        {
          "indexed": false,
          "internalType": "uint256",
          "name": "oldVAIMintRate",
          "type": "uint256"
        },
        {
          "indexed": false,
          "internalType": "uint256",
          "name": "newVAIMintRate",
          "type": "uint256"
        }
      ],
      "name": "NewVAIMintRate",
      "type": "event"
    },
    {
      "anonymous": false,
      "inputs": [
        {
          "indexed": true,
          "internalType": "address",
          "name": "vault_",
          "type": "address"
        },
        {
          "indexed": false,
          "internalType": "uint256",
          "name": "releaseStartBlock_",
          "type": "uint256"
        },
        {
          "indexed": false,
          "internalType": "uint256",
          "name": "releaseInterval_",
          "type": "uint256"
        }
      ],
      "name": "NewVAIVaultInfo",
      "type": "event"
    },
    {
      "anonymous": false,
      "inputs": [
        {
          "indexed": false,
          "internalType": "uint256",
          "name": "oldVenusVAIVaultRate",
          "type": "uint256"
        },
        {
          "indexed": false,
          "internalType": "uint256",
          "name": "newVenusVAIVaultRate",
          "type": "uint256"
        }
      ],
      "name": "NewVenusVAIVaultRate",
      "type": "event"
    },
    {
      "anonymous": false,
      "inputs": [
        {
          "indexed": true,
          "internalType": "contract VToken",
          "name": "vToken",
          "type": "address"
        },
        {
          "indexed": false,
          "internalType": "uint256",
          "name": "newSpeed",
          "type": "uint256"
        }
      ],
      "name": "VenusBorrowSpeedUpdated",
      "type": "event"
    },
    {
      "anonymous": false,
      "inputs": [
        {
          "indexed": true,
          "internalType": "address",
          "name": "recipient",
          "type": "address"
        },
        {
          "indexed": false,
          "internalType": "uint256",
          "name": "amount",
          "type": "uint256"
        }
      ],
      "name": "VenusGranted",
      "type": "event"
    },
    {
      "anonymous": false,
      "inputs": [
        {
          "indexed": true,
          "internalType": "contract VToken",
          "name": "vToken",
          "type": "address"
        },
        {
          "indexed": false,
          "internalType": "uint256",
          "name": "newSpeed",
          "type": "uint256"
        }
      ],
      "name": "VenusSupplySpeedUpdated",
      "type": "event"
    },
    {
      "payable": true,
      "stateMutability": "payable",
      "type": "fallback"
    },
    {
      "constant": false,
      "inputs": [
        {
          "internalType": "contract Unitroller",
          "name": "unitroller",
          "type": "address"
        }
      ],
      "name": "_become",
      "outputs": [],
      "payable": false,
      "stateMutability": "nonpayable",
      "type": "function"
    },
    {
      "constant": false,
      "inputs": [
        {
          "internalType": "address",
          "name": "recipient",
          "type": "address"
        },
        {
          "internalType": "uint256",
          "name": "amount",
          "type": "uint256"
        }
      ],
      "name": "_grantXVS",
      "outputs": [],
      "payable": false,
      "stateMutability": "nonpayable",
      "type": "function"
    },
    {
      "constant": false,
      "inputs": [
        {
          "internalType": "address",
          "name": "newAccessControlAddress",
          "type": "address"
        }
      ],
      "name": "_setAccessControl",
      "outputs": [
        {
          "internalType": "uint256",
          "name": "",
          "type": "uint256"
        }
      ],
      "payable": false,
      "stateMutability": "nonpayable",
      "type": "function"
    },
    {
      "constant": false,
      "inputs": [
        {
          "internalType": "address[]",
          "name": "markets_",
          "type": "address[]"
        },
        {
          "internalType": "enum ComptrollerTypes.Action[]",
          "name": "actions_",
          "type": "uint8[]"
        },
        {
          "internalType": "bool",
          "name": "paused_",
          "type": "bool"
        }
      ],
      "name": "_setActionsPaused",
      "outputs": [],
      "payable": false,
      "stateMutability": "nonpayable",
      "type": "function"
    },
    {
      "constant": false,
      "inputs": [
        {
          "internalType": "uint256",
          "name": "newCloseFactorMantissa",
          "type": "uint256"
        }
      ],
      "name": "_setCloseFactor",
      "outputs": [
        {
          "internalType": "uint256",
          "name": "",
          "type": "uint256"
        }
      ],
      "payable": false,
      "stateMutability": "nonpayable",
      "type": "function"
    },
    {
      "constant": false,
      "inputs": [
        {
          "internalType": "contract VToken",
          "name": "vToken",
          "type": "address"
        },
        {
          "internalType": "uint256",
          "name": "newCollateralFactorMantissa",
          "type": "uint256"
        }
      ],
      "name": "_setCollateralFactor",
      "outputs": [
        {
          "internalType": "uint256",
          "name": "",
          "type": "uint256"
        }
      ],
      "payable": false,
      "stateMutability": "nonpayable",
      "type": "function"
    },
    {
      "constant": false,
      "inputs": [
        {
          "internalType": "contract ComptrollerLensInterface",
          "name": "comptrollerLens_",
          "type": "address"
        }
      ],
      "name": "_setComptrollerLens",
      "outputs": [
        {
          "internalType": "uint256",
          "name": "",
          "type": "uint256"
        }
      ],
      "payable": false,
      "stateMutability": "nonpayable",
      "type": "function"
    },
    {
      "constant": false,
      "inputs": [
        {
          "internalType": "address",
          "name": "vTokenBorrowed",
          "type": "address"
        },
        {
          "internalType": "bool",
          "name": "enable",
          "type": "bool"
        }
      ],
      "name": "_setForcedLiquidation",
      "outputs": [],
      "payable": false,
      "stateMutability": "nonpayable",
      "type": "function"
    },
    {
      "constant": false,
      "inputs": [
        {
          "internalType": "address",
          "name": "borrower",
          "type": "address"
        },
        {
          "internalType": "address",
          "name": "vTokenBorrowed",
          "type": "address"
        },
        {
          "internalType": "bool",
          "name": "enable",
          "type": "bool"
        }
      ],
      "name": "_setForcedLiquidationForUser",
      "outputs": [],
      "payable": false,
      "stateMutability": "nonpayable",
      "type": "function"
    },
    {
      "constant": false,
      "inputs": [
        {
          "internalType": "uint256",
          "name": "newLiquidationIncentiveMantissa",
          "type": "uint256"
        }
      ],
      "name": "_setLiquidationIncentive",
      "outputs": [
        {
          "internalType": "uint256",
          "name": "",
          "type": "uint256"
        }
      ],
      "payable": false,
      "stateMutability": "nonpayable",
      "type": "function"
    },
    {
      "constant": false,
      "inputs": [
        {
          "internalType": "address",
          "name": "newLiquidatorContract_",
          "type": "address"
        }
      ],
      "name": "_setLiquidatorContract",
      "outputs": [],
      "payable": false,
      "stateMutability": "nonpayable",
      "type": "function"
    },
    {
      "constant": false,
      "inputs": [
        {
          "internalType": "contract VToken[]",
          "name": "vTokens",
          "type": "address[]"
        },
        {
          "internalType": "uint256[]",
          "name": "newBorrowCaps",
          "type": "uint256[]"
        }
      ],
      "name": "_setMarketBorrowCaps",
      "outputs": [],
      "payable": false,
      "stateMutability": "nonpayable",
      "type": "function"
    },
    {
      "constant": false,
      "inputs": [
        {
          "internalType": "contract VToken[]",
          "name": "vTokens",
          "type": "address[]"
        },
        {
          "internalType": "uint256[]",
          "name": "newSupplyCaps",
          "type": "uint256[]"
        }
      ],
      "name": "_setMarketSupplyCaps",
      "outputs": [],
      "payable": false,
      "stateMutability": "nonpayable",
      "type": "function"
    },
    {
      "constant": false,
      "inputs": [
        {
          "internalType": "address",
          "name": "newPauseGuardian",
          "type": "address"
        }
      ],
      "name": "_setPauseGuardian",
      "outputs": [
        {
          "internalType": "uint256",
          "name": "",
          "type": "uint256"
        }
      ],
      "payable": false,
      "stateMutability": "nonpayable",
      "type": "function"
    },
    {
      "constant": false,
      "inputs": [
        {
          "internalType": "contract PriceOracle",
          "name": "newOracle",
          "type": "address"
        }
      ],
      "name": "_setPriceOracle",
      "outputs": [
        {
          "internalType": "uint256",
          "name": "",
          "type": "uint256"
        }
      ],
      "payable": false,
      "stateMutability": "nonpayable",
      "type": "function"
    },
    {
      "constant": false,
      "inputs": [
        {
          "internalType": "contract IPrime",
          "name": "_prime",
          "type": "address"
        }
      ],
      "name": "_setPrimeToken",
      "outputs": [
        {
          "internalType": "uint256",
          "name": "",
          "type": "uint256"
        }
      ],
      "payable": false,
      "stateMutability": "nonpayable",
      "type": "function"
    },
    {
      "constant": false,
      "inputs": [
        {
          "internalType": "bool",
          "name": "state",
          "type": "bool"
        }
      ],
      "name": "_setProtocolPaused",
      "outputs": [
        {
          "internalType": "bool",
          "name": "",
          "type": "bool"
        }
      ],
      "payable": false,
      "stateMutability": "nonpayable",
      "type": "function"
    },
    {
      "constant": false,
      "inputs": [
        {
          "internalType": "address",
          "name": "newTreasuryGuardian",
          "type": "address"
        },
        {
          "internalType": "address",
          "name": "newTreasuryAddress",
          "type": "address"
        },
        {
          "internalType": "uint256",
          "name": "newTreasuryPercent",
          "type": "uint256"
        }
      ],
      "name": "_setTreasuryData",
      "outputs": [
        {
          "internalType": "uint256",
          "name": "",
          "type": "uint256"
        }
      ],
      "payable": false,
      "stateMutability": "nonpayable",
      "type": "function"
    },
    {
      "constant": false,
      "inputs": [
        {
          "internalType": "contract VAIControllerInterface",
          "name": "vaiController_",
          "type": "address"
        }
      ],
      "name": "_setVAIController",
      "outputs": [
        {
          "internalType": "uint256",
          "name": "",
          "type": "uint256"
        }
      ],
      "payable": false,
      "stateMutability": "nonpayable",
      "type": "function"
    },
    {
      "constant": false,
      "inputs": [
        {
          "internalType": "uint256",
          "name": "newVAIMintRate",
          "type": "uint256"
        }
      ],
      "name": "_setVAIMintRate",
      "outputs": [
        {
          "internalType": "uint256",
          "name": "",
          "type": "uint256"
        }
      ],
      "payable": false,
      "stateMutability": "nonpayable",
      "type": "function"
    },
    {
      "constant": false,
      "inputs": [
        {
          "internalType": "address",
          "name": "vault_",
          "type": "address"
        },
        {
          "internalType": "uint256",
          "name": "releaseStartBlock_",
          "type": "uint256"
        },
        {
          "internalType": "uint256",
          "name": "minReleaseAmount_",
          "type": "uint256"
        }
      ],
      "name": "_setVAIVaultInfo",
      "outputs": [],
      "payable": false,
      "stateMutability": "nonpayable",
      "type": "function"
    },
    {
      "constant": false,
      "inputs": [
        {
          "internalType": "contract VToken[]",
          "name": "vTokens",
          "type": "address[]"
        },
        {
          "internalType": "uint256[]",
          "name": "supplySpeeds",
          "type": "uint256[]"
        },
        {
          "internalType": "uint256[]",
          "name": "borrowSpeeds",
          "type": "uint256[]"
        }
      ],
      "name": "_setVenusSpeeds",
      "outputs": [],
      "payable": false,
      "stateMutability": "nonpayable",
      "type": "function"
    },
    {
      "constant": false,
      "inputs": [
        {
          "internalType": "uint256",
          "name": "venusVAIVaultRate_",
          "type": "uint256"
        }
      ],
      "name": "_setVenusVAIVaultRate",
      "outputs": [],
      "payable": false,
      "stateMutability": "nonpayable",
      "type": "function"
    },
    {
      "constant": false,
      "inputs": [
        {
          "internalType": "contract VToken",
          "name": "vToken",
          "type": "address"
        }
      ],
      "name": "_supportMarket",
      "outputs": [
        {
          "internalType": "uint256",
          "name": "",
          "type": "uint256"
        }
      ],
      "payable": false,
      "stateMutability": "nonpayable",
      "type": "function"
    },
    {
      "constant": true,
      "inputs": [
        {
          "internalType": "address",
          "name": "",
          "type": "address"
        },
        {
          "internalType": "uint256",
          "name": "",
          "type": "uint256"
        }
      ],
      "name": "accountAssets",
      "outputs": [
        {
          "internalType": "contract VToken",
          "name": "",
          "type": "address"
        }
      ],
      "payable": false,
      "stateMutability": "view",
      "type": "function"
    },
    {
      "constant": true,
      "inputs": [
        {
          "internalType": "address",
          "name": "market",
          "type": "address"
        },
        {
          "internalType": "enum ComptrollerTypes.Action",
          "name": "action",
          "type": "uint8"
        }
      ],
      "name": "actionPaused",
      "outputs": [
        {
          "internalType": "bool",
          "name": "",
          "type": "bool"
        }
      ],
      "payable": false,
      "stateMutability": "view",
      "type": "function"
    },
    {
      "constant": true,
      "inputs": [],
      "name": "admin",
      "outputs": [
        {
          "internalType": "address",
          "name": "",
          "type": "address"
        }
      ],
      "payable": false,
      "stateMutability": "view",
      "type": "function"
    },
    {
      "constant": true,
      "inputs": [
        {
          "internalType": "uint256",
          "name": "",
          "type": "uint256"
        }
      ],
      "name": "allMarkets",
      "outputs": [
        {
          "internalType": "contract VToken",
          "name": "",
          "type": "address"
        }
      ],
      "payable": false,
      "stateMutability": "view",
      "type": "function"
    },
    {
      "constant": true,
      "inputs": [
        {
          "internalType": "address",
          "name": "",
          "type": "address"
        },
        {
          "internalType": "address",
          "name": "",
          "type": "address"
        }
      ],
      "name": "approvedDelegates",
      "outputs": [
        {
          "internalType": "bool",
          "name": "",
          "type": "bool"
        }
      ],
      "payable": false,
      "stateMutability": "view",
      "type": "function"
    },
    {
      "constant": false,
      "inputs": [
        {
          "internalType": "address",
          "name": "vToken",
          "type": "address"
        },
        {
          "internalType": "address",
          "name": "borrower",
          "type": "address"
        },
        {
          "internalType": "uint256",
          "name": "borrowAmount",
          "type": "uint256"
        }
      ],
      "name": "borrowAllowed",
      "outputs": [
        {
          "internalType": "uint256",
          "name": "",
          "type": "uint256"
        }
      ],
      "payable": false,
      "stateMutability": "nonpayable",
      "type": "function"
    },
    {
      "constant": true,
      "inputs": [],
      "name": "borrowCapGuardian",
      "outputs": [
        {
          "internalType": "address",
          "name": "",
          "type": "address"
        }
      ],
      "payable": false,
      "stateMutability": "view",
      "type": "function"
    },
    {
      "constant": true,
      "inputs": [
        {
          "internalType": "address",
          "name": "",
          "type": "address"
        }
      ],
      "name": "borrowCaps",
      "outputs": [
        {
          "internalType": "uint256",
          "name": "",
          "type": "uint256"
        }
      ],
      "payable": false,
      "stateMutability": "view",
      "type": "function"
    },
    {
      "constant": false,
      "inputs": [
        {
          "internalType": "address",
          "name": "vToken",
          "type": "address"
        },
        {
          "internalType": "address",
          "name": "borrower",
          "type": "address"
        },
        {
          "internalType": "uint256",
          "name": "borrowAmount",
          "type": "uint256"
        }
      ],
      "name": "borrowVerify",
      "outputs": [],
      "payable": false,
      "stateMutability": "nonpayable",
      "type": "function"
    },
    {
      "constant": true,
      "inputs": [
        {
          "internalType": "address",
          "name": "account",
          "type": "address"
        },
        {
          "internalType": "contract VToken",
          "name": "vToken",
          "type": "address"
        }
      ],
      "name": "checkMembership",
      "outputs": [
        {
          "internalType": "bool",
          "name": "",
          "type": "bool"
        }
      ],
      "payable": false,
      "stateMutability": "view",
      "type": "function"
    },
    {
      "constant": false,
      "inputs": [
        {
          "internalType": "address[]",
          "name": "holders",
          "type": "address[]"
        },
        {
          "internalType": "contract VToken[]",
          "name": "vTokens",
          "type": "address[]"
        },
        {
          "internalType": "bool",
          "name": "borrowers",
          "type": "bool"
        },
        {
          "internalType": "bool",
          "name": "suppliers",
          "type": "bool"
        },
        {
          "internalType": "bool",
          "name": "collateral",
          "type": "bool"
        }
      ],
      "name": "claimVenus",
      "outputs": [],
      "payable": false,
      "stateMutability": "nonpayable",
      "type": "function"
    },
    {
      "constant": false,
      "inputs": [
        {
          "internalType": "address",
          "name": "holder",
          "type": "address"
        },
        {
          "internalType": "contract VToken[]",
          "name": "vTokens",
          "type": "address[]"
        }
      ],
      "name": "claimVenus",
      "outputs": [],
      "payable": false,
      "stateMutability": "nonpayable",
      "type": "function"
    },
    {
      "constant": false,
      "inputs": [
        {
          "internalType": "address",
          "name": "holder",
          "type": "address"
        }
      ],
      "name": "claimVenus",
      "outputs": [],
      "payable": false,
      "stateMutability": "nonpayable",
      "type": "function"
    },
    {
      "constant": false,
      "inputs": [
        {
          "internalType": "address[]",
          "name": "holders",
          "type": "address[]"
        },
        {
          "internalType": "contract VToken[]",
          "name": "vTokens",
          "type": "address[]"
        },
        {
          "internalType": "bool",
          "name": "borrowers",
          "type": "bool"
        },
        {
          "internalType": "bool",
          "name": "suppliers",
          "type": "bool"
        }
      ],
      "name": "claimVenus",
      "outputs": [],
      "payable": false,
      "stateMutability": "nonpayable",
      "type": "function"
    },
    {
      "constant": false,
      "inputs": [
        {
          "internalType": "address",
          "name": "holder",
          "type": "address"
        }
      ],
      "name": "claimVenusAsCollateral",
      "outputs": [],
      "payable": false,
      "stateMutability": "nonpayable",
      "type": "function"
    },
    {
      "constant": true,
      "inputs": [],
      "name": "closeFactorMantissa",
      "outputs": [
        {
          "internalType": "uint256",
          "name": "",
          "type": "uint256"
        }
      ],
      "payable": false,
      "stateMutability": "view",
      "type": "function"
    },
    {
      "constant": true,
      "inputs": [],
      "name": "comptrollerImplementation",
      "outputs": [
        {
          "internalType": "address",
          "name": "",
          "type": "address"
        }
      ],
      "payable": false,
      "stateMutability": "view",
      "type": "function"
    },
    {
      "constant": true,
      "inputs": [],
      "name": "comptrollerLens",
      "outputs": [
        {
          "internalType": "contract ComptrollerLensInterface",
          "name": "",
          "type": "address"
        }
      ],
      "payable": false,
      "stateMutability": "view",
      "type": "function"
    },
    {
      "constant": false,
      "inputs": [
        {
          "components": [
            {
              "internalType": "address",
              "name": "facetAddress",
              "type": "address"
            },
            {
              "internalType": "enum IDiamondCut.FacetCutAction",
              "name": "action",
              "type": "uint8"
            },
            {
              "internalType": "bytes4[]",
              "name": "functionSelectors",
              "type": "bytes4[]"
            }
          ],
          "internalType": "struct IDiamondCut.FacetCut[]",
          "name": "diamondCut_",
          "type": "tuple[]"
        }
      ],
      "name": "diamondCut",
      "outputs": [],
      "payable": false,
      "stateMutability": "nonpayable",
      "type": "function"
    },
    {
      "constant": false,
      "inputs": [
        {
          "internalType": "address[]",
          "name": "vTokens",
          "type": "address[]"
        }
      ],
      "name": "enterMarkets",
      "outputs": [
        {
          "internalType": "uint256[]",
          "name": "",
          "type": "uint256[]"
        }
      ],
      "payable": false,
      "stateMutability": "nonpayable",
      "type": "function"
    },
    {
      "constant": false,
      "inputs": [
        {
          "internalType": "address",
          "name": "vTokenAddress",
          "type": "address"
        }
      ],
      "name": "exitMarket",
      "outputs": [
        {
          "internalType": "uint256",
          "name": "",
          "type": "uint256"
        }
      ],
      "payable": false,
      "stateMutability": "nonpayable",
      "type": "function"
    },
    {
      "constant": true,
      "inputs": [
        {
          "internalType": "bytes4",
          "name": "functionSelector",
          "type": "bytes4"
        }
      ],
      "name": "facetAddress",
      "outputs": [
        {
          "components": [
            {
              "internalType": "address",
              "name": "facetAddress",
              "type": "address"
            },
            {
              "internalType": "uint96",
              "name": "functionSelectorPosition",
              "type": "uint96"
            }
          ],
          "internalType": "struct ComptrollerV13Storage.FacetAddressAndPosition",
          "name": "",
          "type": "tuple"
        }
      ],
      "payable": false,
      "stateMutability": "view",
      "type": "function"
    },
    {
      "constant": true,
      "inputs": [],
      "name": "facetAddresses",
      "outputs": [
        {
          "internalType": "address[]",
          "name": "",
          "type": "address[]"
        }
      ],
      "payable": false,
      "stateMutability": "view",
      "type": "function"
    },
    {
      "constant": true,
      "inputs": [
        {
          "internalType": "address",
          "name": "facet",
          "type": "address"
        }
      ],
      "name": "facetFunctionSelectors",
      "outputs": [
        {
          "internalType": "bytes4[]",
          "name": "",
          "type": "bytes4[]"
        }
      ],
      "payable": false,
      "stateMutability": "view",
      "type": "function"
    },
    {
      "constant": true,
      "inputs": [
        {
          "internalType": "address",
          "name": "facet",
          "type": "address"
        }
      ],
      "name": "facetPosition",
      "outputs": [
        {
          "internalType": "uint256",
          "name": "",
          "type": "uint256"
        }
      ],
      "payable": false,
      "stateMutability": "view",
      "type": "function"
    },
    {
      "constant": true,
      "inputs": [],
      "name": "facets",
      "outputs": [
        {
          "components": [
            {
              "internalType": "address",
              "name": "facetAddress",
              "type": "address"
            },
            {
              "internalType": "bytes4[]",
              "name": "functionSelectors",
              "type": "bytes4[]"
            }
          ],
          "internalType": "struct Diamond.Facet[]",
          "name": "",
          "type": "tuple[]"
        }
      ],
      "payable": false,
      "stateMutability": "view",
      "type": "function"
    },
    {
      "constant": true,
      "inputs": [
        {
          "internalType": "address",
          "name": "account",
          "type": "address"
        }
      ],
      "name": "getAccountLiquidity",
      "outputs": [
        {
          "internalType": "uint256",
          "name": "",
          "type": "uint256"
        },
        {
          "internalType": "uint256",
          "name": "",
          "type": "uint256"
        },
        {
          "internalType": "uint256",
          "name": "",
          "type": "uint256"
        }
      ],
      "payable": false,
      "stateMutability": "view",
      "type": "function"
    },
    {
      "constant": true,
      "inputs": [],
      "name": "getAllMarkets",
      "outputs": [
        {
          "internalType": "contract VToken[]",
          "name": "",
          "type": "address[]"
        }
      ],
      "payable": false,
      "stateMutability": "view",
      "type": "function"
    },
    {
      "constant": true,
      "inputs": [
        {
          "internalType": "address",
          "name": "account",
          "type": "address"
        }
      ],
      "name": "getAssetsIn",
      "outputs": [
        {
          "internalType": "contract VToken[]",
          "name": "",
          "type": "address[]"
        }
      ],
      "payable": false,
      "stateMutability": "view",
      "type": "function"
    },
    {
      "constant": true,
      "inputs": [
        {
          "internalType": "address",
          "name": "account",
          "type": "address"
        },
        {
          "internalType": "address",
          "name": "vTokenModify",
          "type": "address"
        },
        {
          "internalType": "uint256",
          "name": "redeemTokens",
          "type": "uint256"
        },
        {
          "internalType": "uint256",
          "name": "borrowAmount",
          "type": "uint256"
        }
      ],
      "name": "getHypotheticalAccountLiquidity",
      "outputs": [
        {
          "internalType": "uint256",
          "name": "",
          "type": "uint256"
        },
        {
          "internalType": "uint256",
          "name": "",
          "type": "uint256"
        },
        {
          "internalType": "uint256",
          "name": "",
          "type": "uint256"
        }
      ],
      "payable": false,
      "stateMutability": "view",
      "type": "function"
    },
    {
      "constant": true,
      "inputs": [],
      "name": "getXVSAddress",
      "outputs": [
        {
          "internalType": "address",
          "name": "",
          "type": "address"
        }
      ],
      "payable": false,
      "stateMutability": "pure",
      "type": "function"
    },
    {
      "constant": true,
      "inputs": [],
      "name": "getXVSVTokenAddress",
      "outputs": [
        {
          "internalType": "address",
          "name": "",
          "type": "address"
        }
      ],
      "payable": false,
      "stateMutability": "pure",
      "type": "function"
    },
    {
      "constant": true,
      "inputs": [],
      "name": "isComptroller",
      "outputs": [
        {
          "internalType": "bool",
          "name": "",
          "type": "bool"
        }
      ],
      "payable": false,
      "stateMutability": "pure",
      "type": "function"
    },
    {
      "constant": true,
      "inputs": [
        {
          "internalType": "address",
          "name": "",
          "type": "address"
        }
      ],
      "name": "isForcedLiquidationEnabled",
      "outputs": [
        {
          "internalType": "bool",
          "name": "",
          "type": "bool"
        }
      ],
      "payable": false,
      "stateMutability": "view",
      "type": "function"
    },
    {
      "constant": true,
      "inputs": [
        {
          "internalType": "address",
          "name": "",
          "type": "address"
        },
        {
          "internalType": "address",
          "name": "",
          "type": "address"
        }
      ],
      "name": "isForcedLiquidationEnabledForUser",
      "outputs": [
        {
          "internalType": "bool",
          "name": "",
          "type": "bool"
        }
      ],
      "payable": false,
      "stateMutability": "view",
      "type": "function"
    },
    {
      "constant": true,
      "inputs": [
        {
          "internalType": "address",
          "name": "vTokenBorrowed",
          "type": "address"
        },
        {
          "internalType": "address",
          "name": "vTokenCollateral",
          "type": "address"
        },
        {
          "internalType": "address",
          "name": "liquidator",
          "type": "address"
        },
        {
          "internalType": "address",
          "name": "borrower",
          "type": "address"
        },
        {
          "internalType": "uint256",
          "name": "repayAmount",
          "type": "uint256"
        }
      ],
      "name": "liquidateBorrowAllowed",
      "outputs": [
        {
          "internalType": "uint256",
          "name": "",
          "type": "uint256"
        }
      ],
      "payable": false,
      "stateMutability": "view",
      "type": "function"
    },
    {
      "constant": false,
      "inputs": [
        {
          "internalType": "address",
          "name": "vTokenBorrowed",
          "type": "address"
        },
        {
          "internalType": "address",
          "name": "vTokenCollateral",
          "type": "address"
        },
        {
          "internalType": "address",
          "name": "liquidator",
          "type": "address"
        },
        {
          "internalType": "address",
          "name": "borrower",
          "type": "address"
        },
        {
          "internalType": "uint256",
          "name": "actualRepayAmount",
          "type": "uint256"
        },
        {
          "internalType": "uint256",
          "name": "seizeTokens",
          "type": "uint256"
        }
      ],
      "name": "liquidateBorrowVerify",
      "outputs": [],
      "payable": false,
      "stateMutability": "nonpayable",
      "type": "function"
    },
    {
      "constant": true,
      "inputs": [
        {
          "internalType": "address",
          "name": "vTokenBorrowed",
          "type": "address"
        },
        {
          "internalType": "address",
          "name": "vTokenCollateral",
          "type": "address"
        },
        {
          "internalType": "uint256",
          "name": "actualRepayAmount",
          "type": "uint256"
        }
      ],
      "name": "liquidateCalculateSeizeTokens",
      "outputs": [
        {
          "internalType": "uint256",
          "name": "",
          "type": "uint256"
        },
        {
          "internalType": "uint256",
          "name": "",
          "type": "uint256"
        }
      ],
      "payable": false,
      "stateMutability": "view",
      "type": "function"
    },
    {
      "constant": true,
      "inputs": [
        {
          "internalType": "address",
          "name": "vTokenCollateral",
          "type": "address"
        },
        {
          "internalType": "uint256",
          "name": "actualRepayAmount",
          "type": "uint256"
        }
      ],
      "name": "liquidateVAICalculateSeizeTokens",
      "outputs": [
        {
          "internalType": "uint256",
          "name": "",
          "type": "uint256"
        },
        {
          "internalType": "uint256",
          "name": "",
          "type": "uint256"
        }
      ],
      "payable": false,
      "stateMutability": "view",
      "type": "function"
    },
    {
      "constant": true,
      "inputs": [],
      "name": "liquidationIncentiveMantissa",
      "outputs": [
        {
          "internalType": "uint256",
          "name": "",
          "type": "uint256"
        }
      ],
      "payable": false,
      "stateMutability": "view",
      "type": "function"
    },
    {
      "constant": true,
      "inputs": [],
      "name": "liquidatorContract",
      "outputs": [
        {
          "internalType": "address",
          "name": "",
          "type": "address"
        }
      ],
      "payable": false,
      "stateMutability": "view",
      "type": "function"
    },
    {
      "constant": true,
      "inputs": [
        {
          "internalType": "address",
          "name": "",
          "type": "address"
        }
      ],
      "name": "markets",
      "outputs": [
        {
          "internalType": "bool",
          "name": "isListed",
          "type": "bool"
        },
        {
          "internalType": "uint256",
          "name": "collateralFactorMantissa",
          "type": "uint256"
        },
        {
          "internalType": "bool",
          "name": "isVenus",
          "type": "bool"
        }
      ],
      "payable": false,
      "stateMutability": "view",
      "type": "function"
    },
    {
      "constant": true,
      "inputs": [],
      "name": "maxAssets",
      "outputs": [
        {
          "internalType": "uint256",
          "name": "",
          "type": "uint256"
        }
      ],
      "payable": false,
      "stateMutability": "view",
      "type": "function"
    },
    {
      "constant": true,
      "inputs": [],
      "name": "minReleaseAmount",
      "outputs": [
        {
          "internalType": "uint256",
          "name": "",
          "type": "uint256"
        }
      ],
      "payable": false,
      "stateMutability": "view",
      "type": "function"
    },
    {
      "constant": false,
      "inputs": [
        {
          "internalType": "address",
          "name": "vToken",
          "type": "address"
        },
        {
          "internalType": "address",
          "name": "minter",
          "type": "address"
        },
        {
          "internalType": "uint256",
          "name": "mintAmount",
          "type": "uint256"
        }
      ],
      "name": "mintAllowed",
      "outputs": [
        {
          "internalType": "uint256",
          "name": "",
          "type": "uint256"
        }
      ],
      "payable": false,
      "stateMutability": "nonpayable",
      "type": "function"
    },
    {
      "constant": true,
      "inputs": [],
      "name": "mintVAIGuardianPaused",
      "outputs": [
        {
          "internalType": "bool",
          "name": "",
          "type": "bool"
        }
      ],
      "payable": false,
      "stateMutability": "view",
      "type": "function"
    },
    {
      "constant": false,
      "inputs": [
        {
          "internalType": "address",
          "name": "vToken",
          "type": "address"
        },
        {
          "internalType": "address",
          "name": "minter",
          "type": "address"
        },
        {
          "internalType": "uint256",
          "name": "actualMintAmount",
          "type": "uint256"
        },
        {
          "internalType": "uint256",
          "name": "mintTokens",
          "type": "uint256"
        }
      ],
      "name": "mintVerify",
      "outputs": [],
      "payable": false,
      "stateMutability": "nonpayable",
      "type": "function"
    },
    {
      "constant": true,
      "inputs": [
        {
          "internalType": "address",
          "name": "",
          "type": "address"
        }
      ],
      "name": "mintedVAIs",
      "outputs": [
        {
          "internalType": "uint256",
          "name": "",
          "type": "uint256"
        }
      ],
      "payable": false,
      "stateMutability": "view",
      "type": "function"
    },
    {
      "constant": true,
      "inputs": [],
      "name": "oracle",
      "outputs": [
        {
          "internalType": "contract PriceOracle",
          "name": "",
          "type": "address"
        }
      ],
      "payable": false,
      "stateMutability": "view",
      "type": "function"
    },
    {
      "constant": true,
      "inputs": [],
      "name": "pauseGuardian",
      "outputs": [
        {
          "internalType": "address",
          "name": "",
          "type": "address"
        }
      ],
      "payable": false,
      "stateMutability": "view",
      "type": "function"
    },
    {
      "constant": true,
      "inputs": [],
      "name": "pendingAdmin",
      "outputs": [
        {
          "internalType": "address",
          "name": "",
          "type": "address"
        }
      ],
      "payable": false,
      "stateMutability": "view",
      "type": "function"
    },
    {
      "constant": true,
      "inputs": [],
      "name": "pendingComptrollerImplementation",
      "outputs": [
        {
          "internalType": "address",
          "name": "",
          "type": "address"
        }
      ],
      "payable": false,
      "stateMutability": "view",
      "type": "function"
    },
    {
      "constant": true,
      "inputs": [],
      "name": "prime",
      "outputs": [
        {
          "internalType": "contract IPrime",
          "name": "",
          "type": "address"
        }
      ],
      "payable": false,
      "stateMutability": "view",
      "type": "function"
    },
    {
      "constant": true,
      "inputs": [],
      "name": "protocolPaused",
      "outputs": [
        {
          "internalType": "bool",
          "name": "",
          "type": "bool"
        }
      ],
      "payable": false,
      "stateMutability": "view",
      "type": "function"
    },
    {
      "constant": false,
      "inputs": [
        {
          "internalType": "address",
          "name": "vToken",
          "type": "address"
        },
        {
          "internalType": "address",
          "name": "redeemer",
          "type": "address"
        },
        {
          "internalType": "uint256",
          "name": "redeemTokens",
          "type": "uint256"
        }
      ],
      "name": "redeemAllowed",
      "outputs": [
        {
          "internalType": "uint256",
          "name": "",
          "type": "uint256"
        }
      ],
      "payable": false,
      "stateMutability": "nonpayable",
      "type": "function"
    },
    {
      "constant": false,
      "inputs": [
        {
          "internalType": "address",
          "name": "vToken",
          "type": "address"
        },
        {
          "internalType": "address",
          "name": "redeemer",
          "type": "address"
        },
        {
          "internalType": "uint256",
          "name": "redeemAmount",
          "type": "uint256"
        },
        {
          "internalType": "uint256",
          "name": "redeemTokens",
          "type": "uint256"
        }
      ],
      "name": "redeemVerify",
      "outputs": [],
      "payable": false,
      "stateMutability": "nonpayable",
      "type": "function"
    },
    {
      "constant": true,
      "inputs": [],
      "name": "releaseStartBlock",
      "outputs": [
        {
          "internalType": "uint256",
          "name": "",
          "type": "uint256"
        }
      ],
      "payable": false,
      "stateMutability": "view",
      "type": "function"
    },
    {
      "constant": false,
      "inputs": [
        {
          "internalType": "address",
          "name": "vToken",
          "type": "address"
        },
        {
          "internalType": "address",
          "name": "payer",
          "type": "address"
        },
        {
          "internalType": "address",
          "name": "borrower",
          "type": "address"
        },
        {
          "internalType": "uint256",
          "name": "repayAmount",
          "type": "uint256"
        }
      ],
      "name": "repayBorrowAllowed",
      "outputs": [
        {
          "internalType": "uint256",
          "name": "",
          "type": "uint256"
        }
      ],
      "payable": false,
      "stateMutability": "nonpayable",
      "type": "function"
    },
    {
      "constant": false,
      "inputs": [
        {
          "internalType": "address",
          "name": "vToken",
          "type": "address"
        },
        {
          "internalType": "address",
          "name": "payer",
          "type": "address"
        },
        {
          "internalType": "address",
          "name": "borrower",
          "type": "address"
        },
        {
          "internalType": "uint256",
          "name": "actualRepayAmount",
          "type": "uint256"
        },
        {
          "internalType": "uint256",
          "name": "borrowerIndex",
          "type": "uint256"
        }
      ],
      "name": "repayBorrowVerify",
      "outputs": [],
      "payable": false,
      "stateMutability": "nonpayable",
      "type": "function"
    },
    {
      "constant": true,
      "inputs": [],
      "name": "repayVAIGuardianPaused",
      "outputs": [
        {
          "internalType": "bool",
          "name": "",
          "type": "bool"
        }
      ],
      "payable": false,
      "stateMutability": "view",
      "type": "function"
    },
    {
      "constant": false,
      "inputs": [
        {
          "internalType": "address",
          "name": "vTokenCollateral",
          "type": "address"
        },
        {
          "internalType": "address",
          "name": "vTokenBorrowed",
          "type": "address"
        },
        {
          "internalType": "address",
          "name": "liquidator",
          "type": "address"
        },
        {
          "internalType": "address",
          "name": "borrower",
          "type": "address"
        },
        {
          "internalType": "uint256",
          "name": "seizeTokens",
          "type": "uint256"
        }
      ],
      "name": "seizeAllowed",
      "outputs": [
        {
          "internalType": "uint256",
          "name": "",
          "type": "uint256"
        }
      ],
      "payable": false,
      "stateMutability": "nonpayable",
      "type": "function"
    },
    {
      "constant": false,
      "inputs": [
        {
          "internalType": "address",
          "name": "vTokenCollateral",
          "type": "address"
        },
        {
          "internalType": "address",
          "name": "vTokenBorrowed",
          "type": "address"
        },
        {
          "internalType": "address",
          "name": "liquidator",
          "type": "address"
        },
        {
          "internalType": "address",
          "name": "borrower",
          "type": "address"
        },
        {
          "internalType": "uint256",
          "name": "seizeTokens",
          "type": "uint256"
        }
      ],
      "name": "seizeVerify",
      "outputs": [],
      "payable": false,
      "stateMutability": "nonpayable",
      "type": "function"
    },
    {
      "constant": false,
      "inputs": [
        {
          "internalType": "address",
          "name": "owner",
          "type": "address"
        },
        {
          "internalType": "uint256",
          "name": "amount",
          "type": "uint256"
        }
      ],
      "name": "setMintedVAIOf",
      "outputs": [
        {
          "internalType": "uint256",
          "name": "",
          "type": "uint256"
        }
      ],
      "payable": false,
      "stateMutability": "nonpayable",
      "type": "function"
    },
    {
      "constant": true,
      "inputs": [
        {
          "internalType": "address",
          "name": "",
          "type": "address"
        }
      ],
      "name": "supplyCaps",
      "outputs": [
        {
          "internalType": "uint256",
          "name": "",
          "type": "uint256"
        }
      ],
      "payable": false,
      "stateMutability": "view",
      "type": "function"
    },
    {
      "constant": false,
      "inputs": [
        {
          "internalType": "address",
          "name": "vToken",
          "type": "address"
        },
        {
          "internalType": "address",
          "name": "src",
          "type": "address"
        },
        {
          "internalType": "address",
          "name": "dst",
          "type": "address"
        },
        {
          "internalType": "uint256",
          "name": "transferTokens",
          "type": "uint256"
        }
      ],
      "name": "transferAllowed",
      "outputs": [
        {
          "internalType": "uint256",
          "name": "",
          "type": "uint256"
        }
      ],
      "payable": false,
      "stateMutability": "nonpayable",
      "type": "function"
    },
    {
      "constant": false,
      "inputs": [
        {
          "internalType": "address",
          "name": "vToken",
          "type": "address"
        },
        {
          "internalType": "address",
          "name": "src",
          "type": "address"
        },
        {
          "internalType": "address",
          "name": "dst",
          "type": "address"
        },
        {
          "internalType": "uint256",
          "name": "transferTokens",
          "type": "uint256"
        }
      ],
      "name": "transferVerify",
      "outputs": [],
      "payable": false,
      "stateMutability": "nonpayable",
      "type": "function"
    },
    {
      "constant": true,
      "inputs": [],
      "name": "treasuryAddress",
      "outputs": [
        {
          "internalType": "address",
          "name": "",
          "type": "address"
        }
      ],
      "payable": false,
      "stateMutability": "view",
      "type": "function"
    },
    {
      "constant": true,
      "inputs": [],
      "name": "treasuryGuardian",
      "outputs": [
        {
          "internalType": "address",
          "name": "",
          "type": "address"
        }
      ],
      "payable": false,
      "stateMutability": "view",
      "type": "function"
    },
    {
      "constant": true,
      "inputs": [],
      "name": "treasuryPercent",
      "outputs": [
        {
          "internalType": "uint256",
          "name": "",
          "type": "uint256"
        }
      ],
      "payable": false,
      "stateMutability": "view",
      "type": "function"
    },
    {
      "constant": false,
      "inputs": [
        {
          "internalType": "address",
          "name": "delegate",
          "type": "address"
        },
        {
          "internalType": "bool",
          "name": "allowBorrows",
          "type": "bool"
        }
      ],
      "name": "updateDelegate",
      "outputs": [],
      "payable": false,
      "stateMutability": "nonpayable",
      "type": "function"
    },
    {
      "constant": true,
      "inputs": [],
      "name": "vaiController",
      "outputs": [
        {
          "internalType": "contract VAIControllerInterface",
          "name": "",
          "type": "address"
        }
      ],
      "payable": false,
      "stateMutability": "view",
      "type": "function"
    },
    {
      "constant": true,
      "inputs": [],
      "name": "vaiMintRate",
      "outputs": [
        {
          "internalType": "uint256",
          "name": "",
          "type": "uint256"
        }
      ],
      "payable": false,
      "stateMutability": "view",
      "type": "function"
    },
    {
      "constant": true,
      "inputs": [],
      "name": "vaiVaultAddress",
      "outputs": [
        {
          "internalType": "address",
          "name": "",
          "type": "address"
        }
      ],
      "payable": false,
      "stateMutability": "view",
      "type": "function"
    },
    {
      "constant": true,
      "inputs": [
        {
          "internalType": "address",
          "name": "",
          "type": "address"
        }
      ],
      "name": "venusAccrued",
      "outputs": [
        {
          "internalType": "uint256",
          "name": "",
          "type": "uint256"
        }
      ],
      "payable": false,
      "stateMutability": "view",
      "type": "function"
    },
    {
      "constant": true,
      "inputs": [
        {
          "internalType": "address",
          "name": "",
          "type": "address"
        }
      ],
      "name": "venusBorrowSpeeds",
      "outputs": [
        {
          "internalType": "uint256",
          "name": "",
          "type": "uint256"
        }
      ],
      "payable": false,
      "stateMutability": "view",
      "type": "function"
    },
    {
      "constant": true,
      "inputs": [
        {
          "internalType": "address",
          "name": "",
          "type": "address"
        }
      ],
      "name": "venusBorrowState",
      "outputs": [
        {
          "internalType": "uint224",
          "name": "index",
          "type": "uint224"
        },
        {
          "internalType": "uint32",
          "name": "block",
          "type": "uint32"
        }
      ],
      "payable": false,
      "stateMutability": "view",
      "type": "function"
    },
    {
      "constant": true,
      "inputs": [
        {
          "internalType": "address",
          "name": "",
          "type": "address"
        },
        {
          "internalType": "address",
          "name": "",
          "type": "address"
        }
      ],
      "name": "venusBorrowerIndex",
      "outputs": [
        {
          "internalType": "uint256",
          "name": "",
          "type": "uint256"
        }
      ],
      "payable": false,
      "stateMutability": "view",
      "type": "function"
    },
    {
      "constant": true,
      "inputs": [],
      "name": "venusInitialIndex",
      "outputs": [
        {
          "internalType": "uint224",
          "name": "",
          "type": "uint224"
        }
      ],
      "payable": false,
      "stateMutability": "view",
      "type": "function"
    },
    {
      "constant": true,
      "inputs": [
        {
          "internalType": "address",
          "name": "",
          "type": "address"
        },
        {
          "internalType": "address",
          "name": "",
          "type": "address"
        }
      ],
      "name": "venusSupplierIndex",
      "outputs": [
        {
          "internalType": "uint256",
          "name": "",
          "type": "uint256"
        }
      ],
      "payable": false,
      "stateMutability": "view",
      "type": "function"
    },
    {
      "constant": true,
      "inputs": [
        {
          "internalType": "address",
          "name": "",
          "type": "address"
        }
      ],
      "name": "venusSupplySpeeds",
      "outputs": [
        {
          "internalType": "uint256",
          "name": "",
          "type": "uint256"
        }
      ],
      "payable": false,
      "stateMutability": "view",
      "type": "function"
    },
    {
      "constant": true,
      "inputs": [
        {
          "internalType": "address",
          "name": "",
          "type": "address"
        }
      ],
      "name": "venusSupplyState",
      "outputs": [
        {
          "internalType": "uint224",
          "name": "index",
          "type": "uint224"
        },
        {
          "internalType": "uint32",
          "name": "block",
          "type": "uint32"
        }
      ],
      "payable": false,
      "stateMutability": "view",
      "type": "function"
    },
    {
      "constant": true,
      "inputs": [],
      "name": "venusVAIVaultRate",
      "outputs": [
        {
          "internalType": "uint256",
          "name": "",
          "type": "uint256"
        }
      ],
      "payable": false,
      "stateMutability": "view",
      "type": "function"
    }
  ],
  "bytecode": "0x60806040523480156200001157600080fd5b506187ae80620000226000396000f3fe6080604052600436106106305760003560e01c80638c1ac18a11610329578063c488847b116101b6578063e37d4b7911610102578063ede4edd0116100a0578063f519fc301161007a578063f519fc30146112e7578063f851a44014611307578063fa6331d81461131c578063fd51a3ad1461133157610630565b8063ede4edd014611292578063ededbae6146112b2578063f445d703146112c757610630565b8063e85a2960116100dc578063e85a29601461121d578063e87554461461123d578063eabe7d9114611252578063ead1a8a01461127257610630565b8063e37d4b79146111bd578063e4028eee146111dd578063e57e69c6146111fd57610630565b8063d09c54ba1161016f578063da3d454c11610149578063da3d454c14611148578063dce1544914611168578063dcfbc0c714611188578063ddbf54fd1461119d57610630565b8063d09c54ba146110f3578063d24febad14611113578063d3270f991461113357610630565b8063c488847b1461103a578063c5b4db551461105a578063c5f956af1461107c578063c7ee005e14611091578063cdffacc6146110a6578063d02f7351146110d357610630565b8063abfceffc11610275578063bb82aa5e1161022e578063bdcdc25811610208578063bdcdc25814610fc3578063bec04f7214610fe3578063bf32442d14610ff8578063c29982381461100d57610630565b8063bb82aa5e14610f6e578063bb85745014610f83578063bbb8864a14610fa357610630565b8063abfceffc14610e9c578063adcd5fb914610ec9578063adfca15e14610ee9578063b0772d0b14610f16578063b2eafc3914610f2b578063b8324c7c14610f4057610630565b806394b2294b116102e25780639cfdd9e6116102bc5780639cfdd9e614610e0e578063a7604b4114610e2e578063a76b3fda14610e4e578063a78dc77514610e6e57610630565b806394b2294b14610dc45780639bb27d6214610dd95780639bf34cbb14610dee57610630565b80638c1ac18a14610d005780638e8f294b14610d205780638f738f3614610d4f5780639254f5e514610d6f578063929fe9a114610d845780639460c8b514610da457610630565b80634e79238f116104c25780635fc7e71e1161040e57806376551383116103ac5780637d172bd5116103865780637d172bd514610c965780637dc0d1d014610cab57806386df31ee14610cc05780638a7dc16514610ce057610630565b80637655138314610c3f5780637858524d14610c545780637a0ed62714610c7457610630565b80636a56947e116103e85780636a56947e14610bca5780636d35bf9114610bea57806370bf66f014610c0a578063719f701b14610c2a57610630565b80635fc7e71e14610b6a578063607ef6c114610b8a5780636662c7c914610baa57610630565b806352d84d1e1161047b5780635c778605116104555780635c77860514610aea5780635dd3fc9d14610b0a5780635ec88c7914610b2a5780635f5af1aa14610b4a57610630565b806352d84d1e14610a7b57806352ef6b2c14610aa857806355ee1fe114610aca57610630565b80634e79238f146109ac5780634ef4c3e1146109db5780634fd42e17146109fb57806351a485e414610a1b57806351dff98914610a3b578063522c656b14610a5b57610630565b80632a6a60651161058157806341a18d2c1161053a57806347ef3b3b1161051457806347ef3b3b146109375780634a584432146109575780634ada90af146109775780634e0853db1461098c57610630565b806341a18d2c146108e257806341c728b914610902578063425fad581461092257610630565b80632a6a60651461082d5780632b5d790c1461084d5780632bc7e29e1461086d5780632ec041241461088d578063317b0b77146108ad5780634088c73e146108cd57610630565b806317db2163116105ee57806321af4569116105c857806321af4569146107c157806324008a62146107e357806324a3d62214610803578063267822471461081857610630565b806317db21631461075f5780631d504dc6146107815780631ededc91146107a157610630565b80627e3dd21461069d57806302c3bcbb146106c857806304ef9d58146106f557806308e0225c1461070a5780630db4b4e51461072a57806310b983381461073f575b600080356001600160e01b0319168152602e60205260409020546001600160a01b0316806106795760405162461bcd60e51b8152600401610670906182e4565b60405180910390fd5b3660008037600080366000845af43d6000803e808015610698573d6000f35b3d6000fd5b3480156106a957600080fd5b506106b2611351565b6040516106bf9190618194565b60405180910390f35b3480156106d457600080fd5b506106e86106e3366004616aa9565b611357565b6040516106bf919061848b565b34801561070157600080fd5b506106e8611369565b34801561071657600080fd5b506106e8610725366004616ae5565b61136f565b34801561073657600080fd5b506106e861138c565b34801561074b57600080fd5b506106b261075a366004616ae5565b611392565b34801561076b57600080fd5b5061077f61077a366004616cd3565b6113b2565b005b34801561078d57600080fd5b5061077f61079c366004617267565b61147a565b3480156107ad57600080fd5b5061077f6107bc366004616c7c565b6115ae565b3480156107cd57600080fd5b506107d661162b565b6040516106bf9190618013565b3480156107ef57600080fd5b506106e86107fe366004616c1b565b61163a565b34801561080f57600080fd5b506107d661171b565b34801561082457600080fd5b506107d661172a565b34801561083957600080fd5b506106b26108483660046171ef565b611739565b34801561085957600080fd5b5061077f610868366004616f21565b6117ce565b34801561087957600080fd5b506106e8610888366004616aa9565b61186d565b34801561089957600080fd5b506106e86108a83660046172c2565b61187f565b3480156108b957600080fd5b506106e86108c83660046172c2565b6118fc565b3480156108d957600080fd5b506106b2611a02565b3480156108ee57600080fd5b506106e86108fd366004616ae5565b611a0b565b34801561090e57600080fd5b5061077f61091d366004616d63565b611a28565b34801561092e57600080fd5b506106b2611a9f565b34801561094357600080fd5b5061077f610952366004616b94565b611aae565b34801561096357600080fd5b506106e8610972366004616aa9565b611b90565b34801561098357600080fd5b506106e8611ba2565b34801561099857600080fd5b5061077f6109a7366004616eae565b611ba8565b3480156109b857600080fd5b506109cc6109c7366004616d63565b611c6d565b6040516106bf939291906184cf565b3480156109e757600080fd5b506106e86109f6366004616d20565b611ca3565b348015610a0757600080fd5b506106e8610a163660046172c2565b611e5e565b348015610a2757600080fd5b5061077f610a363660046170af565b611f07565b348015610a4757600080fd5b5061077f610a56366004616d63565b612035565b348015610a6757600080fd5b5061077f610a76366004616dee565b61205d565b348015610a8757600080fd5b50610a9b610a963660046172c2565b612114565b6040516106bf91906181ca565b348015610ab457600080fd5b50610abd61213b565b6040516106bf919061812e565b348015610ad657600080fd5b506106e8610ae5366004617267565b61219d565b348015610af657600080fd5b5061077f610b05366004616d20565b612236565b348015610b1657600080fd5b506106e8610b25366004616aa9565b6122ac565b348015610b3657600080fd5b506109cc610b45366004616aa9565b6122be565b348015610b5657600080fd5b506106e8610b65366004616aa9565b6122f3565b348015610b7657600080fd5b506106e8610b85366004616b1f565b61238c565b348015610b9657600080fd5b5061077f610ba53660046170af565b612628565b348015610bb657600080fd5b5061077f610bc53660046172c2565b61274d565b348015610bd657600080fd5b5061077f610be5366004616c1b565b6127da565b348015610bf657600080fd5b5061077f610c05366004616b1f565b612881565b348015610c1657600080fd5b5061077f610c2536600461701a565b612928565b348015610c3657600080fd5b506106e8612b37565b348015610c4b57600080fd5b506106b2612b3d565b348015610c6057600080fd5b5061077f610c6f366004616aa9565b612b4b565b348015610c8057600080fd5b50610c89612c08565b6040516106bf9190618172565b348015610ca257600080fd5b506107d6612d60565b348015610cb757600080fd5b50610a9b612d6f565b348015610ccc57600080fd5b5061077f610cdb366004616da7565b612d7e565b348015610cec57600080fd5b506106e8610cfb366004616aa9565b612ddb565b348015610d0c57600080fd5b506106b2610d1b366004616aa9565b612ded565b348015610d2c57600080fd5b50610d40610d3b366004616aa9565b612e02565b6040516106bf939291906181a2565b348015610d5b57600080fd5b506106e8610d6a366004616aa9565b612e28565b348015610d7b57600080fd5b50610a9b612e46565b348015610d9057600080fd5b506106b2610d9f366004616e1e565b612e55565b348015610db057600080fd5b506106e8610dbf366004617267565b612e89565b348015610dd057600080fd5b506106e8612f00565b348015610de557600080fd5b506107d6612f06565b348015610dfa57600080fd5b506106e8610e09366004617267565b612f15565b348015610e1a57600080fd5b506106e8610e29366004617267565b612fb0565b348015610e3a57600080fd5b5061077f610e49366004616e7e565b613049565b348015610e5a57600080fd5b506106e8610e69366004617267565b6130c6565b348015610e7a57600080fd5b50610e8e610e89366004616e7e565b613231565b6040516106bf929190618499565b348015610ea857600080fd5b50610ebc610eb7366004616aa9565b6132cc565b6040516106bf9190618150565b348015610ed557600080fd5b5061077f610ee4366004616aa9565b613342565b348015610ef557600080fd5b50610f09610f04366004616aa9565b6133a6565b6040516106bf919061813f565b348015610f2257600080fd5b50610ebc61343d565b348015610f3757600080fd5b506107d661349d565b348015610f4c57600080fd5b50610f60610f5b366004616aa9565b6134ac565b6040516106bf929190618470565b348015610f7a57600080fd5b506107d66134d6565b348015610f8f57600080fd5b5061077f610f9e366004616aa9565b6134e5565b348015610faf57600080fd5b506106e8610fbe366004616aa9565b61357b565b348015610fcf57600080fd5b506106e8610fde366004616c1b565b61358d565b348015610fef57600080fd5b506106e86135db565b34801561100457600080fd5b506107d66135e1565b34801561101957600080fd5b5061102d611028366004616ee0565b6135f9565b6040516106bf9190618183565b34801561104657600080fd5b50610e8e611055366004616d20565b613694565b34801561106657600080fd5b5061106f613730565b6040516106bf9190618462565b34801561108857600080fd5b506107d6613742565b34801561109d57600080fd5b50610a9b613751565b3480156110b257600080fd5b506110c66110c136600461722b565b613760565b6040516106bf9190618454565b3480156110df57600080fd5b506106e86110ee366004616b1f565b6137b1565b3480156110ff57600080fd5b5061077f61110e366004616f98565b613970565b34801561111f57600080fd5b506106e861112e366004616d20565b61397e565b34801561113f57600080fd5b50610a9b613ac4565b34801561115457600080fd5b506106e8611163366004616d20565b613ad3565b34801561117457600080fd5b50610a9b611183366004616e7e565b613dcf565b34801561119457600080fd5b506107d6613e04565b3480156111a957600080fd5b5061077f6111b8366004616dee565b613e13565b3480156111c957600080fd5b50610f606111d8366004616aa9565b613e1e565b3480156111e957600080fd5b506106e86111f8366004617285565b613e48565b34801561120957600080fd5b5061077f6112183660046171bb565b614027565b34801561122957600080fd5b506106b2611238366004616e4e565b61405a565b34801561124957600080fd5b506106e861409a565b34801561125e57600080fd5b506106e861126d366004616d20565b6140a0565b34801561127e57600080fd5b5061077f61128d36600461711d565b6140ef565b34801561129e57600080fd5b506106e86112ad366004616aa9565b6141ad565b3480156112be57600080fd5b506107d6614421565b3480156112d357600080fd5b506106b26112e2366004616ae5565b614439565b3480156112f357600080fd5b506106e8611302366004616aa9565b614459565b34801561131357600080fd5b506107d66144f2565b34801561132857600080fd5b506106e8614501565b34801561133d57600080fd5b506106e861134c366004616e7e565b614507565b60015b90565b60276020526000908152604090205481565b60225481565b601360209081526000928352604080842090915290825290205481565b601d5481565b602c60209081526000928352604080842090915290825290205460ff1681565b6113d36040518060600160405280603281526020016186566032913961458f565b6015546001600160a01b03838116911614611409576001600160a01b03821660009081526009602052604090206114099061462d565b6001600160a01b0383811660008181526032602090815260408083209487168084529490915290819020805460ff1916851515179055517fc080966e9e93529edc1b244180c245bc60f3d86f1e690a17651a5e428746a8cd9061146d908590618194565b60405180910390a3505050565b806001600160a01b031663f851a4406040518163ffffffff1660e01b815260040160206040518083038186803b1580156114b357600080fd5b505afa1580156114c7573d6000803e3d6000fd5b505050506040513d601f19601f820116820180604052506114eb9190810190616ac7565b6001600160a01b0316336001600160a01b03161461151b5760405162461bcd60e51b8152600401610670906182b4565b806001600160a01b031663c1e803346040518163ffffffff1660e01b8152600401602060405180830381600087803b15801561155657600080fd5b505af115801561156a573d6000803e3d6000fd5b505050506040513d601f19601f8201168201806040525061158e91908101906172e0565b156115ab5760405162461bcd60e51b815260040161067090618334565b50565b6031546001600160a01b031615611624576031546040516367994e8b60e11b81526001600160a01b039091169063cf329d16906115f1908690899060040161804f565b600060405180830381600087803b15801561160b57600080fd5b505af115801561161f573d6000803e3d6000fd5b505050505b5050505050565b601e546001600160a01b031681565b600061164461464e565b61164f856003614679565b6001600160a01b03851660009081526009602052604090206116709061462d565b61167861671c565b6040518060200160405280876001600160a01b031663aa5af0fd6040518163ffffffff1660e01b815260040160206040518083038186803b1580156116bc57600080fd5b505afa1580156116d0573d6000803e3d6000fd5b505050506040513d601f19601f820116820180604052506116f491908101906172e0565b9052905061170286826146a0565b61170d868583614862565b60009150505b949350505050565b600a546001600160a01b031681565b6001546001600160a01b031681565b60006117796040518060400160405280601881526020017f5f73657450726f746f636f6c50617573656428626f6f6c29000000000000000081525061458f565b6018805462ff0000191662010000841515021790556040517fd7500633dd3ddd74daa7af62f8c8404c7fe4a81da179998db851696bed004b38906117be908490618194565b60405180910390a150805b919050565b6117ef6040518060600160405280602981526020016186886029913961458f565b838260005b828110156118635760005b8281101561185a5761185289898481811061181657fe5b905060200201602061182b9190810190616aa9565b88888481811061183757fe5b905060200201602061184c91908101906172a4565b876149ed565b6001016117ff565b506001016117f4565b5050505050505050565b60166020526000908152604090205481565b600060175482808214156118a55760405162461bcd60e51b8152600401610670906182f4565b6118ad614a98565b60178054908590556040517f73747d68b346dce1e932bcd238282e7ac84c01569e1f8d0469c222fdc6e9d5a4906118e79083908890618499565b60405180910390a160009350505b5050919050565b600060055482808214156119225760405162461bcd60e51b8152600401610670906182f4565b61192a614a98565b61193261671c565b50604080516020810190915284815261194961671c565b506040805160208101909152670c7d713b49da0000815261196861671c565b50604080516020810190915266b1a2bc2ec5000081526119888284614ac2565b8061199857506119988184614ac9565b156119b2576119a8600580614ad0565b95505050506118f5565b60058054908890556040517f3b9670cf975d26958e754b57098eaa2ac914d8d2a31b83257997b9f346110fd9906119ec9083908b90618499565b60405180910390a1600098975050505050505050565b60185460ff1681565b601260209081526000928352604080842090915290825290205481565b6031546001600160a01b031615611a99576031546040516367994e8b60e11b81526001600160a01b039091169063cf329d1690611a6b908690889060040161804f565b600060405180830381600087803b158015611a8557600080fd5b505af1158015611863573d6000803e3d6000fd5b50505050565b60185462010000900460ff1681565b6031546001600160a01b031615611b88576031546040516367994e8b60e11b81526001600160a01b039091169063cf329d1690611af19086908a9060040161804f565b600060405180830381600087803b158015611b0b57600080fd5b505af1158015611b1f573d6000803e3d6000fd5b50506031546040516367994e8b60e11b81526001600160a01b03909116925063cf329d169150611b559087908a9060040161804f565b600060405180830381600087803b158015611b6f57600080fd5b505af1158015611b83573d6000803e3d6000fd5b505050505b505050505050565b601f6020526000908152604090205481565b60065481565b601b546001600160a01b039081169084908116821415611bda5760405162461bcd60e51b815260040161067090618364565b611be2614a98565b611beb85614b30565b601b546001600160a01b031615611c0457611c04614b56565b601b80546001600160a01b0319166001600160a01b038716908117909155601c859055601d8490556040517f7059037d74ee16b0fb06a4a30f3348dd2635f301f92e373c92899a25a522ef6e90611c5e9087908790618499565b60405180910390a25050505050565b600080600080600080611c828a8a8a8a614d18565b925092509250826013811115611c9457fe5b9a919950975095505050505050565b6000611cad61464e565b611cb8846000614679565b6001600160a01b0384166000908152600960205260409020611cd99061462d565b6001600160a01b03841660009081526027602052604090205480611d0f5760405162461bcd60e51b815260040161067090618384565b6000856001600160a01b03166318160ddd6040518163ffffffff1660e01b815260040160206040518083038186803b158015611d4a57600080fd5b505afa158015611d5e573d6000803e3d6000fd5b505050506040513d601f19601f82011682018060405250611d8291908101906172e0565b9050611d8c61671c565b6040518060200160405280886001600160a01b031663182df0f56040518163ffffffff1660e01b815260040160206040518083038186803b158015611dd057600080fd5b505afa158015611de4573d6000803e3d6000fd5b505050506040513d601f19601f82011682018060405250611e0891908101906172e0565b905290506000611e19828488614dad565b905083811115611e3b5760405162461bcd60e51b815260040161067090618204565b611e4488614dd5565b611e4e8888614f6d565b60009450505050505b9392505050565b60006006548280821415611e845760405162461bcd60e51b8152600401610670906182f4565b611ea56040518060600160405280602181526020016186b16021913961458f565b670de0b6b3a7640000841015611ecd5760405162461bcd60e51b815260040161067090618314565b60068054908590556040517faeba5a6c40a8ac138134bff1aaa65debf25971188a58804bad717f82f0ec1316906118e79083908890618499565b611f286040518060600160405280602981526020016186d26029913961458f565b82818115801590611f3857508082145b611f545760405162461bcd60e51b815260040161067090618404565b60005b8281101561202c57848482818110611f6b57fe5b9050602002013560276000898985818110611f8257fe5b9050602002016020611f979190810190617267565b6001600160a01b03168152602081019190915260400160002055868682818110611fbd57fe5b9050602002016020611fd29190810190617267565b6001600160a01b03167f9e0ad9cee10bdf36b7fbd38910c0bdff0f275ace679b45b922381c2723d676f886868481811061200857fe5b9050602002013560405161201c919061848b565b60405180910390a2600101611f57565b50505050505050565b80151580612041575081155b611a285760405162461bcd60e51b8152600401610670906183c4565b61207e6040518060600160405280602381526020016186fb6023913961458f565b6015546001600160a01b038381169116146120b4576001600160a01b03821660009081526009602052604090206120b49061462d565b6001600160a01b0382166000818152602d602052604090819020805460ff1916841515179055517f03561d5280ebb02280893b1d60978e4a27e7654a149c5d0e7c2cf65389ce169490612108908490618194565b60405180910390a25050565b600d818154811061212157fe5b6000918252602090912001546001600160a01b0316905081565b6060603080548060200260200160405190810160405280929190818152602001828054801561219357602002820191906000526020600020905b81546001600160a01b03168152600190910190602001808311612175575b5050505050905090565b6004546000906001600160a01b0390811690839081168214156121d25760405162461bcd60e51b815260040161067090618364565b6121da614a98565b6121e384614b30565b600480546001600160a01b038681166001600160a01b03198316179092556040519116907fd52b2b9b7e9ee655fcb95d2e5b9e0c9f69e7ef2b8e9d2d0ea78402d576d22e22906118e790839088906181d8565b6031546001600160a01b0316156122a7576031546040516367994e8b60e11b81526001600160a01b039091169063cf329d1690612279908590879060040161804f565b600060405180830381600087803b15801561229357600080fd5b505af115801561202c573d6000803e3d6000fd5b505050565b602b6020526000908152604090205481565b6000806000806000806122d5876000806000614d18565b9250925092508260138111156122e757fe5b97919650945092505050565b600a546000906001600160a01b0390811690839081168214156123285760405162461bcd60e51b815260040161067090618364565b612330614a98565b61233984614b30565b600a80546001600160a01b038681166001600160a01b03198316179092556040519116907f0613b6ee6a04f0d09f390e4d9318894b9f6ac7fd83897cd8d18896ba579c401e906118e7908390889061804f565b600061239661464e565b6123a1866005614679565b6025546001600160a01b0316158015906123c957506025546001600160a01b03858116911614155b156123d65750600161261f565b6001600160a01b03851660009081526009602052604090206123f79061462d565b6015546000906001600160a01b038881169116146124b3576001600160a01b03871660009081526009602052604090206124309061462d565b6040516395dd919360e01b81526001600160a01b038816906395dd91939061245c908790600401618013565b60206040518083038186803b15801561247457600080fd5b505afa158015612488573d6000803e3d6000fd5b505050506040513d601f19601f820116820180604052506124ac91908101906172e0565b9050612536565b601554604051633c617c9160e11b81526001600160a01b03909116906378c2f922906124e3908790600401618013565b60206040518083038186803b1580156124fb57600080fd5b505afa15801561250f573d6000803e3d6000fd5b505050506040513d601f19601f8201168201806040525061253391908101906172e0565b90505b6001600160a01b0387166000908152602d602052604090205460ff168061258257506001600160a01b038085166000908152603260209081526040808320938b168352929052205460ff165b156125a1578083111561259a5760115b91505061261f565b6000612592565b6000806125b2866000806000614d18565b919350909150600090508260138111156125c857fe5b146125e3578160138111156125d957fe5b935050505061261f565b806125ef5760036125d9565b612609604051806020016040528060055481525084615126565b8511156126175760116125d9565b600093505050505b95945050505050565b61264960405180606001604052806029815260200161871e6029913961458f565b8281811580159061265957508082145b6126755760405162461bcd60e51b815260040161067090618404565b60005b8281101561202c5784848281811061268c57fe5b90506020020135601f60008989858181106126a357fe5b90506020020160206126b89190810190617267565b6001600160a01b031681526020810191909152604001600020558686828181106126de57fe5b90506020020160206126f39190810190617267565b6001600160a01b03167f6f1951b2aad10f3fc81b86d91105b413a5b3f847a34bbc5ce1904201b14438f686868481811061272957fe5b9050602002013560405161273d919061848b565b60405180910390a2600101612678565b601a5481808214156127715760405162461bcd60e51b8152600401610670906182f4565b612779614a98565b601b546001600160a01b03161561279257612792614b56565b601a8054908490556040517fe81d4ac15e5afa1e708e66664eddc697177423d950d133bda8262d8885e6da3b906127cc9083908790618499565b60405180910390a150505050565b6031546001600160a01b031615611a99576031546040516367994e8b60e11b81526001600160a01b039091169063cf329d169061281d908690889060040161804f565b600060405180830381600087803b15801561283757600080fd5b505af115801561284b573d6000803e3d6000fd5b50506031546040516367994e8b60e11b81526001600160a01b03909116925063cf329d169150611a6b908590889060040161804f565b6031546001600160a01b031615611624576031546040516367994e8b60e11b81526001600160a01b039091169063cf329d16906128c4908590899060040161804f565b600060405180830381600087803b1580156128de57600080fd5b505af11580156128f2573d6000803e3d6000fd5b50506031546040516367994e8b60e11b81526001600160a01b03909116925063cf329d1691506115f1908690899060040161804f565b8451845160009190825b81811015612a9c57600088828151811061294857fe5b6020026020010151905061297f60096000836001600160a01b03166001600160a01b0316815260200190815260200160002061462d565b8715612a4f5761298d61671c565b6040518060200160405280836001600160a01b031663aa5af0fd6040518163ffffffff1660e01b815260040160206040518083038186803b1580156129d157600080fd5b505afa1580156129e5573d6000803e3d6000fd5b505050506040513d601f19601f82011682018060405250612a0991908101906172e0565b90529050612a1782826146a0565b600095505b84861015612a4d57612a42828c8881518110612a3457fe5b602002602001015183614862565b856001019550612a1c565b505b8615612a9357612a5e81614dd5565b600094505b83851015612a9357612a88818b8781518110612a7b57fe5b6020026020010151614f6d565b846001019450612a63565b50600101612932565b50600092505b81831015611863576000888481518110612ab857fe5b602002602001015190506000612ad2826000806000614d18565b6001600160a01b03851660009081526014602052604081208054908290559194509092509050612b048483858b615145565b90508015612b28576001600160a01b03841660009081526014602052604090208190555b50505050826001019250612aa2565b601c5481565b601854610100900460ff1681565b604080516001808252818301909252606091602080830190803883390190505090508181600081518110612b7b57fe5b60200260200101906001600160a01b031690816001600160a01b031681525050612c0481600d805480602002602001604051908101604052809291908181526020018280548015612bf557602002820191906000526020600020905b81546001600160a01b03168152600190910190602001808311612bd7575b50505050506001806001612928565b5050565b603054604080518281526020808402820101909152606091908290828015612c4a57816020015b612c3761672f565b815260200190600190039081612c2f5790505b50905060005b82811015612d5957600060308281548110612c6757fe5b9060005260206000200160009054906101000a90046001600160a01b0316905080838381518110612c9457fe5b6020908102919091018101516001600160a01b0392831690529082166000908152602f825260409081902080548251818502810185019093528083529192909190830182828015612d3157602002820191906000526020600020906000905b82829054906101000a900460e01b6001600160e01b03191681526020019060040190602082600301049283019260010382029150808411612cf35790505b5050505050838381518110612d4257fe5b602090810291909101810151015250600101612c50565b5091505090565b601b546001600160a01b031681565b6004546001600160a01b031681565b604080516001808252818301909252606091602080830190803883390190505090508281600081518110612dae57fe5b60200260200101906001600160a01b031690816001600160a01b0316815250506122a78183600180613970565b60146020526000908152604090205481565b602d6020526000908152604090205460ff1681565b60096020526000908152604090208054600182015460039092015460ff91821692911683565b6001600160a01b03166000908152602f602052604090206001015490565b6015546001600160a01b031681565b6001600160a01b038082166000908152600960209081526040808320938616835260029093019052205460ff165b92915050565b6000612e93614a98565b612e9c82614b30565b603180546001600160a01b038481166001600160a01b03198316179092556040519116907fcb20dab7409e4fb972d9adccb39530520b226ce6940d85c9523a499b950b6ea390612eef90839086906181d8565b60405180910390a160009392505050565b60075481565b6025546001600160a01b031681565b6026546000906001600160a01b039081169083908116821415612f4a5760405162461bcd60e51b815260040161067090618364565b612f52614a98565b612f5b84614b30565b602680546001600160a01b038681166001600160a01b031983161792839055604051918116927f0f7eb572d1b3053a0a3a33c04151364cf88d163182a5e4e1088cb8e52321e08a926118e7928592169061804f565b6015546000906001600160a01b039081169083908116821415612fe55760405162461bcd60e51b815260040161067090618364565b612fed614a98565b612ff684614b30565b601580546001600160a01b038681166001600160a01b03198316179092556040519116907fe1ddcb2dab8e5b03cfc8c67a0d5861d91d16f7bd2612fd381faf4541d212c9b2906118e790839088906181d8565b613051614a98565b60006130608383600080615145565b905080156130805760405162461bcd60e51b8152600401610670906183f4565b826001600160a01b03167fd7fe674cac9eee3998fe3cbd7a6f93c3bc70509d97ec1550a59364be6438147e836040516130b9919061848b565b60405180910390a2505050565b60006131066040518060400160405280601781526020017f5f737570706f72744d61726b657428616464726573732900000000000000000081525061458f565b6001600160a01b03821660009081526009602052604090205460ff161561313a57613133600a6011614ad0565b90506117c9565b816001600160a01b0316633d9ea3a16040518163ffffffff1660e01b815260040160206040518083038186803b15801561317357600080fd5b505afa158015613187573d6000803e3d6000fd5b505050506040513d601f19601f820116820180604052506131ab919081019061720d565b506001600160a01b03821660009081526009602052604081208054600160ff19918216811783556003830180549092169091558101919091556131ed836153c0565b6131f683615474565b6040516001600160a01b038416907fcf583bb0c569eb967f806b11601c4cb93c10310485c67add5f8362c2f212321f90600090a26000611e57565b6026546040516304f65f8b60e21b81526000918291829182916001600160a01b03909116906313d97e2c9061326e9030908a908a906004016180eb565b604080518083038186803b15801561328557600080fd5b505afa158015613299573d6000803e3d6000fd5b505050506040513d601f19601f820116820180604052506132bd91908101906172fe565b909450925050505b9250929050565b6001600160a01b03811660009081526008602090815260409182902080548351818402810184019094528084526060939283018282801561333657602002820191906000526020600020905b81546001600160a01b03168152600190910190602001808311613318575b50505050509050919050565b6115ab81600d80548060200260200160405190810160405280929190818152602001828054801561339c57602002820191906000526020600020905b81546001600160a01b0316815260019091019060200180831161337e575b5050505050612d7e565b6001600160a01b0381166000908152602f602090815260409182902080548351818402810184019094528084526060939283018282801561333657602002820191906000526020600020906000905b82829054906101000a900460e01b6001600160e01b031916815260200190600401906020826003010492830192600103820291508084116133f5575094979650505050505050565b6060600d805480602002602001604051908101604052809291908181526020018280548015612193576020028201919060005260206000209081546001600160a01b03168152600190910190602001808311612175575050505050905090565b6020546001600160a01b031681565b6010602052600090815260409020546001600160e01b03811690600160e01b900463ffffffff1682565b6002546001600160a01b031681565b6025546001600160a01b0390811690829081168214156135175760405162461bcd60e51b815260040161067090618364565b61351f614a98565b61352883614b30565b602580546001600160a01b038581166001600160a01b03198316179092556040519116907fa5ea5616d5f6dbbaa62fdfcf3856723216eed485c394d9e51ec8e6d40e1d1ac1906127cc908390879061804f565b602a6020526000908152604090205481565b600061359761464e565b6135a2856006614679565b60006135af86868561552f565b905080156135be579050611713565b6135c786614dd5565b6135d18686614f6d565b61170d8685614f6d565b60175481565b73cf6bb5389c92bdda8a3747ddb454cb7a64626c6390565b60408051828152602080840282010190915260609082908290828015613629578160200160208202803883390190505b50905060005b8281101561368b5761366186868381811061364657fe5b905060200201602061365b9190810190616aa9565b336155e1565b601381111561366c57fe5b82828151811061367857fe5b602090810291909101015260010161362f565b50949350505050565b602654604051630779996560e11b81526000918291829182916001600160a01b0390911690630ef332ca906136d39030908b908b908b9060040161806a565b604080518083038186803b1580156136ea57600080fd5b505afa1580156136fe573d6000803e3d6000fd5b505050506040513d601f19601f8201168201806040525061372291908101906172fe565b909890975095505050505050565b6a0c097ce7bc90715b34b9f160241b81565b6021546001600160a01b031681565b6031546001600160a01b031681565b613768616747565b506001600160e01b0319166000908152602e60209081526040918290208251808401909352546001600160a01b0381168352600160a01b90046001600160601b03169082015290565b60006137bb61464e565b6137c6866004614679565b6001600160a01b03861660009081526009602052604090206137e78161462d565b6001600160a01b038416600090815260028201602052604090205460ff16613810576013612592565b6015546001600160a01b03878116911614613846576001600160a01b03861660009081526009602052604090206138469061462d565b856001600160a01b0316635fe3b5676040518163ffffffff1660e01b815260040160206040518083038186803b15801561387f57600080fd5b505afa158015613893573d6000803e3d6000fd5b505050506040513d601f19601f820116820180604052506138b79190810190617249565b6001600160a01b0316876001600160a01b0316635fe3b5676040518163ffffffff1660e01b815260040160206040518083038186803b1580156138f957600080fd5b505afa15801561390d573d6000803e3d6000fd5b505050506040513d601f19601f820116820180604052506139319190810190617249565b6001600160a01b031614613946576002612592565b61394f87614dd5565b6139598785614f6d565b6139638786614f6d565b6000979650505050505050565b611a99848484846000612928565b602054600090613996906001600160a01b03166156c5565b670de0b6b3a764000082106139bd5760405162461bcd60e51b815260040161067090618284565b6139c684614b30565b6139cf83614b30565b6020805460218054602280546001600160a01b03198086166001600160a01b038c8116919091179097558316898716179093558690556040519284169316917f29f06ea15931797ebaed313d81d100963dc22cb213cb4ce2737b5a62b1a8b1e890613a3d9085908a9061804f565b60405180910390a17f8de763046d7b8f08b6c3d03543de1d615309417842bb5d2d62f110f65809ddac8287604051613a7692919061804f565b60405180910390a17f0893f8f4101baaabbeb513f96761e7a36eb837403c82cc651c292a4abdc94ed78186604051613aaf929190618499565b60405180910390a16000979650505050505050565b6026546001600160a01b031681565b6000613add61464e565b613ae8846002614679565b6001600160a01b0384166000908152600960205260409020613b099061462d565b6001600160a01b038085166000908152600960209081526040808320938716835260029093019052205460ff16613b9957336001600160a01b03851614613b625760405162461bcd60e51b815260040161067090618304565b6000613b6e85856155e1565b90506000816013811115613b7e57fe5b14613b9757806013811115613b8f57fe5b915050611e57565b505b6004805460405163fc57d4df60e01b81526001600160a01b039091169163fc57d4df91613bc8918891016181ca565b60206040518083038186803b158015613be057600080fd5b505afa158015613bf4573d6000803e3d6000fd5b505050506040513d601f19601f82011682018060405250613c1891908101906172e0565b613c2657600d5b9050611e57565b6001600160a01b0384166000908152601f60205260409020548015613ce4576000613cc1866001600160a01b03166347bd37186040518163ffffffff1660e01b815260040160206040518083038186803b158015613c8357600080fd5b505afa158015613c97573d6000803e3d6000fd5b505050506040513d601f19601f82011682018060405250613cbb91908101906172e0565b85615701565b9050818110613ce25760405162461bcd60e51b8152600401610670906183e4565b505b600080613cf48688600088614d18565b91935090915060009050826013811115613d0a57fe5b14613d2557816013811115613d1b57fe5b9350505050611e57565b8015613d32576004613d1b565b613d3a61671c565b6040518060200160405280896001600160a01b031663aa5af0fd6040518163ffffffff1660e01b815260040160206040518083038186803b158015613d7e57600080fd5b505afa158015613d92573d6000803e3d6000fd5b505050506040513d601f19601f82011682018060405250613db691908101906172e0565b90529050613dc488826146a0565b611e4e888883614862565b60086020528160005260406000208181548110613de857fe5b6000918252602090912001546001600160a01b03169150829050565b6003546001600160a01b031681565b612c04338383615737565b6011602052600090815260409020546001600160e01b03811690600160e01b900463ffffffff1682565b6001600160a01b0382166000908152600960205260408120600101548280821415613e855760405162461bcd60e51b8152600401610670906182f4565b613ea66040518060600160405280602581526020016187476025913961458f565b613eaf85614b30565b6001600160a01b0385166000908152600960205260409020613ed08161462d565b613ed861671c565b506040805160208101909152858152613eef61671c565b506040805160208101909152670c7d713b49da00008152613f108183614ac2565b15613f2b57613f2160066008614ad0565b955050505061401f565b8615801590613fb657506004805460405163fc57d4df60e01b81526001600160a01b039091169163fc57d4df91613f64918c91016181ca565b60206040518083038186803b158015613f7c57600080fd5b505afa158015613f90573d6000803e3d6000fd5b505050506040513d601f19601f82011682018060405250613fb491908101906172e0565b155b15613fc757613f21600d6009614ad0565b600183018054908890556040516001600160a01b038a16907f70483e6592cd5182d45ac970e05bc62cdcc90e9d8ef2c2dbe686cf383bcd7fc59061400e9084908c90618499565b60405180910390a260009650505050505b505092915050565b6000546001600160a01b031633146140515760405162461bcd60e51b8152600401610670906182b4565b6115ab8161579b565b6001600160a01b03821660009081526029602052604081208183600881111561407f57fe5b815260208101919091526040016000205460ff169392505050565b60055481565b60006140aa61464e565b6140b5846001614679565b60006140c285858561552f565b905080156140d1579050611e57565b6140da85614dd5565b6140e48585614f6d565b600095945050505050565b6140f7614a98565b84838114801561410657508082145b6141225760405162461bcd60e51b815260040161067090618404565b60005b818110156118635761415688888381811061413c57fe5b90506020020160206141519190810190617267565b614b30565b6141a588888381811061416557fe5b905060200201602061417a9190810190617267565b87878481811061418657fe5b9050602002013586868581811061419957fe5b90506020020135615915565b600101614125565b60006141ba826008614679565b6040516361bfb47160e11b81528290600090819081906001600160a01b0385169063c37f68e2906141ef903390600401618021565b60806040518083038186803b15801561420757600080fd5b505afa15801561421b573d6000803e3d6000fd5b505050506040513d601f19601f8201168201806040525061423f9190810190617371565b50925092509250826000146142665760405162461bcd60e51b815260040161067090618324565b801561428357614278600c6002614ad0565b9450505050506117c9565b600061429087338561552f565b905080156142b1576142a5600e600383615abc565b955050505050506117c9565b6001600160a01b0385166000908152600960209081526040808320338452600281019092529091205460ff166142f057600096505050505050506117c9565b3360009081526002820160209081526040808320805460ff1916905560089091528120805490915b818110156143d157886001600160a01b031683828154811061433657fe5b6000918252602090912001546001600160a01b031614156143c95782600183038154811061436057fe5b9060005260206000200160009054906101000a90046001600160a01b031683828154811061438a57fe5b600091825260209091200180546001600160a01b0319166001600160a01b039290921691909117905582546143c384600019830161675e565b506143d1565b600101614318565b8181106143da57fe5b60405133906001600160a01b038b16907fe699a64c18b07ac5b7301aa273f36a2287239eb9501d81950672794afba29a0d90600090a360009b9a5050505050505050505050565b73151b1e2635a717bcdc836ecd6fbb62b674fe3e1d90565b603260209081526000928352604080842090915290825290205460ff1681565b6028546000906001600160a01b03908116908390811682141561448e5760405162461bcd60e51b815260040161067090618364565b614496614a98565b61449f84614b30565b602880546001600160a01b038681166001600160a01b03198316179092556040519116907f0f1eca7612e020f6e4582bcead0573eba4b5f7b56668754c6aed82ef12057dd4906118e7908390889061804f565b6000546001600160a01b031681565b601a5481565b600061451161464e565b60185460ff1615801561452c5750601854610100900460ff16155b6145485760405162461bcd60e51b815260040161067090618274565b6015546001600160a01b0316331461456d57614566600e6016614ad0565b9050612e83565b6001600160a01b03831660009081526016602052604081208390559392505050565b6028546040516318c5e8ab60e01b81526001600160a01b03909116906318c5e8ab906145c1903390859060040161802f565b60206040518083038186803b1580156145d957600080fd5b505afa1580156145ed573d6000803e3d6000fd5b505050506040513d601f19601f82011682018060405250614611919081019061720d565b6115ab5760405162461bcd60e51b8152600401610670906183d4565b805460ff166115ab5760405162461bcd60e51b815260040161067090618434565b60185462010000900460ff16156146775760405162461bcd60e51b815260040161067090618264565b565b614683828261405a565b15612c045760405162461bcd60e51b815260040161067090618224565b6001600160a01b0382166000908152601160209081526040808320602a90925282205490916146cd615b1b565b83549091506000906146ef9063ffffffff80851691600160e01b900416615b5c565b905080158015906146ff57508215155b15614837576000614780876001600160a01b03166347bd37186040518163ffffffff1660e01b815260040160206040518083038186803b15801561474257600080fd5b505afa158015614756573d6000803e3d6000fd5b505050506040513d601f19601f8201168201806040525061477a91908101906172e0565b87615b96565b9050600061478e8386615bb4565b905061479861671c565b826147b257604051806020016040528060008152506147bc565b6147bc8284615bf6565b604080516020810190915288546001600160e01b03168152909150614805906147e59083615c33565b516040805180820190915260038152620c8c8d60ea1b6020820152615c58565b87546001600160e01b0319166001600160e01b039182161716600160e01b63ffffffff87160217875550611b88915050565b8015611b8857835463ffffffff8316600160e01b026001600160e01b03909116178455505050505050565b601b546001600160a01b03161561487b5761487b614b56565b6001600160a01b0383811660009081526011602090815260408083205460138352818420948716845293909152902080546001600160e01b039092169081905590801580156148d857506a0c097ce7bc90715b34b9f160241b8210155b156148ee57506a0c097ce7bc90715b34b9f160241b5b6148f661671c565b604051806020016040528061490b8585615b5c565b8152509050600061496261495c886001600160a01b03166395dd9193896040518263ffffffff1660e01b81526004016149449190618013565b60206040518083038186803b15801561474257600080fd5b83615c87565b6001600160a01b0387166000908152601460205260409020549091506149889082615701565b6001600160a01b0380881660008181526014602052604090819020939093559151908916907f837bdc11fca9f17ce44167944475225a205279b17e88c791c3b1f66f354668fb906149dc9085908990618499565b60405180910390a350505050505050565b6001600160a01b0383166000908152600960205260409020614a0e9061462d565b6001600160a01b03831660009081526029602052604081208291846008811115614a3457fe5b81526020810191909152604001600020805460ff1916911515919091179055816008811115614a5f57fe5b836001600160a01b03167f35007a986bcd36d2f73fc7f1b73762e12eadb4406dd163194950fd3b5a6a827d8360405161146d9190618194565b6000546001600160a01b031633146146775760405162461bcd60e51b815260040161067090618394565b5190511090565b5190511190565b60007f45b96fe442630264581b197e84bbada861235052c5a1aadfff9ea4e40a969aa0836013811115614aff57fe5b836017811115614b0b57fe5b6000604051614b1c939291906184a7565b60405180910390a1826013811115611e5757fe5b6001600160a01b0381166115ab5760405162461bcd60e51b815260040161067090618294565b601c541580614b6d5750601c54614b6b615cb5565b105b15614b7757614677565b6000614b816135e1565b6001600160a01b03166370a08231306040518263ffffffff1660e01b8152600401614bac9190618013565b60206040518083038186803b158015614bc457600080fd5b505afa158015614bd8573d6000803e3d6000fd5b505050506040513d601f19601f82011682018060405250614bfc91908101906172e0565b905080614c095750614677565b600080614c1f614c17615cb5565b601c54615b5c565b90506000614c2f601a5483615bb4565b9050808410614c4057809250614c44565b8392505b601d54831015614c575750505050614677565b614c5f615cb5565b601c55601b54614c91906001600160a01b031684614c7b6135e1565b6001600160a01b0316919063ffffffff615cb916565b7ff6d4b8f74d85a6e2d7a50225957b8a6cfec69ad92f5905627260541aa0a5565d83604051614cc0919061848b565b60405180910390a1601b60009054906101000a90046001600160a01b03166001600160a01b031663faa1809e6040518163ffffffff1660e01b8152600401600060405180830381600087803b158015611a8557600080fd5b60265460405163a7032efb60e01b8152600091829182918291829182916001600160a01b039091169063a7032efb90614d5d9030908e908e908e908e9060040161809f565b60606040518083038186803b158015614d7557600080fd5b505afa158015614d89573d6000803e3d6000fd5b505050506040513d601f19601f82011682018060405250611c82919081019061732e565b6000614db761671c565b614dc18585615d12565b905061261f614dcf82615d33565b84615701565b6001600160a01b0381166000908152601060209081526040808320602b9092528220549091614e02615b1b565b8354909150600090614e249063ffffffff80851691600160e01b900416615b5c565b90508015801590614e3457508215155b15614f43576000856001600160a01b03166318160ddd6040518163ffffffff1660e01b815260040160206040518083038186803b158015614e7457600080fd5b505afa158015614e88573d6000803e3d6000fd5b505050506040513d601f19601f82011682018060405250614eac91908101906172e0565b90506000614eba8386615bb4565b9050614ec461671c565b82614ede5760405180602001604052806000815250614ee8565b614ee88284615bf6565b604080516020810190915288546001600160e01b03168152909150614f11906147e59083615c33565b87546001600160e01b0319166001600160e01b039182161716600160e01b63ffffffff87160217875550611624915050565b801561162457835463ffffffff8316600160e01b026001600160e01b039091161784555050505050565b601b546001600160a01b031615614f8657614f86614b56565b6001600160a01b0382811660009081526010602090815260408083205460128352818420948616845293909152902080546001600160e01b03909216908190559080158015614fe357506a0c097ce7bc90715b34b9f160241b8210155b15614ff957506a0c097ce7bc90715b34b9f160241b5b61500161671c565b60405180602001604052806150168585615b5c565b8152509050600061509c866001600160a01b03166370a08231876040518263ffffffff1660e01b815260040161504c9190618013565b60206040518083038186803b15801561506457600080fd5b505afa158015615078573d6000803e3d6000fd5b505050506040513d601f19601f8201168201806040525061495c91908101906172e0565b6001600160a01b0386166000908152601460205260409020549091506150c29082615701565b6001600160a01b0380871660008181526014602052604090819020939093559151908816907ffa9d964d891991c113b49e3db1932abd6c67263d387119707aafdd6c4010a3a9906151169085908990618499565b60405180910390a3505050505050565b600061513061671c565b61513a8484615d12565b905061171381615d33565b600073ef044206db68e40520bfa82d45419d498b4bc7bf6001600160a01b038616148015906151915750737589dd3355dae848fdbf75044a3495351655cb1a6001600160a01b03861614155b80156151ba57507333df7a7f6d44307e1e5f3b15975b47515e5524c06001600160a01b03861614155b80156151e357507324e77e5b74b30b026e9996e4bc3329c881e249686001600160a01b03861614155b6151ff5760405162461bcd60e51b815260040161067090618444565b83158061528d575061520f6135e1565b6001600160a01b03166370a08231306040518263ffffffff1660e01b815260040161523a9190618013565b60206040518083038186803b15801561525257600080fd5b505afa158015615266573d6000803e3d6000fd5b505050506040513d601f19601f8201168201806040525061528a91908101906172e0565b84115b15615299575082611713565b826152b3576152ab8585614c7b6135e1565b506000611713565b816152d05760405162461bcd60e51b815260040161067090618354565b6152fb6152db614421565b60006152e56135e1565b6001600160a01b0316919063ffffffff615d4216565b61530f615306614421565b856152e56135e1565b6000615319614421565b6001600160a01b03166323323e0387876040518363ffffffff1660e01b8152600401615346929190618113565b602060405180830381600087803b15801561536057600080fd5b505af1158015615374573d6000803e3d6000fd5b505050506040513d601f19601f8201168201806040525061539891908101906172e0565b146153b55760405162461bcd60e51b815260040161067090618214565b506000949350505050565b600d5460005b8181101561542057826001600160a01b0316600d82815481106153e557fe5b6000918252602090912001546001600160a01b031614156154185760405162461bcd60e51b8152600401610670906182c4565b6001016153c6565b5050600d80546001810182556000919091527fd7b6990105719101dabeb77144f2a3385c8033acd3af97e9423a695e81ad1eb50180546001600160a01b0319166001600160a01b0392909216919091179055565b600061547e615b1b565b6001600160a01b03831660009081526010602090815260408083206011909252909120815492935090916001600160e01b03166154d45781546001600160e01b0319166a0c097ce7bc90715b34b9f160241b1782555b80546001600160e01b03166155025780546001600160e01b0319166a0c097ce7bc90715b34b9f160241b1781555b805463ffffffff909316600160e01b026001600160e01b0393841681179091558154909216909117905550565b6001600160a01b03831660009081526009602052604081206155509061462d565b6001600160a01b038085166000908152600960209081526040808320938716835260029093019052205460ff16615588576000613c1f565b6000806155988587866000614d18565b919350909150600090508260138111156155ae57fe5b146155c8578160138111156155bf57fe5b92505050611e57565b80156155d55760046155bf565b60009695505050505050565b60006155ee836007614679565b6001600160a01b038316600090815260096020526040902061560f8161462d565b6001600160a01b038316600090815260028201602052604090205460ff161561563c576000915050612e83565b6001600160a01b0380841660008181526002840160209081526040808320805460ff191660019081179091556008835281842080549182018155845291832090910180549489166001600160a01b031990951685179055519192917f3ab23ab0d51cccc0c3085aec51f99228625aa1a922b3a8ca89a26b0f2027a1a59190a35060009392505050565b6000546001600160a01b03163314806146115750336001600160a01b038216146115ab5760405162461bcd60e51b8152600401610670906183d4565b6000611e578383604051806040016040528060118152602001706164646974696f6e206f766572666c6f7760781b815250615e08565b6001600160a01b038381166000818152602c602090815260408083209487168084529490915290819020805460ff1916851515179055517fcb325b7784f78486e42849c7a50b8c5ee008d00cd90e108a58912c0fcb6288b49061146d908590618194565b805160005b818110156158d95760008382815181106157b657fe5b6020026020010151602001519050600060028111156157d157fe5b8160028111156157dd57fe5b14156158205761581b8483815181106157f257fe5b60200260200101516000015185848151811061580a57fe5b602002602001015160400151615e2f565b6158d0565b600181600281111561582e57fe5b141561586c5761581b84838151811061584357fe5b60200260200101516000015185848151811061585b57fe5b602002602001015160400151615f28565b600281600281111561587a57fe5b14156158b85761581b84838151811061588f57fe5b6020026020010151600001518584815181106158a757fe5b602002602001015160400151616031565b60405162461bcd60e51b8152600401610670906182a4565b506001016157a0565b507f2e97860c6f47eab0292d51fa3ceec7e373c62af1e7eb2a28ae82998b80de6cfd826040516159099190618161565b60405180910390a15050565b6001600160a01b03831660009081526009602052604090206159369061462d565b6001600160a01b0383166000908152602b602052604090205482146159b25761595e83614dd5565b6001600160a01b0383166000818152602b602052604090819020849055517fa9ff26899e4982e7634afa9f70115dcfb61a17d6e8cdd91aa837671d0ff40ba6906159a990859061848b565b60405180910390a25b6001600160a01b0383166000908152602a602052604090205481146122a7576159d961671c565b6040518060200160405280856001600160a01b031663aa5af0fd6040518163ffffffff1660e01b815260040160206040518083038186803b158015615a1d57600080fd5b505afa158015615a31573d6000803e3d6000fd5b505050506040513d601f19601f82011682018060405250615a5591908101906172e0565b90529050615a6384826146a0565b6001600160a01b0384166000818152602a602052604090819020849055517f0c62c1bc89ec4c40dccb4d21543e782c5ba43897c0075d108d8964181ea3c51b90615aae90859061848b565b60405180910390a250505050565b60007f45b96fe442630264581b197e84bbada861235052c5a1aadfff9ea4e40a969aa0846013811115615aeb57fe5b846017811115615af757fe5b84604051615b07939291906184cf565b60405180910390a183601381111561171357fe5b6000615b57615b28615cb5565b60405180604001604052806011815260200170626c6f636b2023203e203332206269747360781b8152506160d7565b905090565b6000611e578383604051806040016040528060158152602001747375627472616374696f6e20756e646572666c6f7760581b8152506160ff565b6000611e57615bad84670de0b6b3a7640000615bb4565b835161612b565b6000611e5783836040518060400160405280601781526020017f6d756c7469706c69636174696f6e206f766572666c6f7700000000000000000081525061615e565b615bfe61671c565b6040518060200160405280615c2a615c24866a0c097ce7bc90715b34b9f160241b615bb4565b8561612b565b90529392505050565b615c3b61671c565b6040518060200160405280615c2a85600001518560000151615701565b600081600160e01b8410615c7f5760405162461bcd60e51b815260040161067091906181f3565b509192915050565b60006a0c097ce7bc90715b34b9f160241b615ca6848460000151615bb4565b81615cad57fe5b049392505050565b4390565b6040516122a790849063a9059cbb60e01b90615cdb9086908690602401618113565b60408051601f198184030181529190526020810180516001600160e01b03166001600160e01b0319909316929092179091526161a6565b615d1a61671c565b6040518060200160405280615c2a856000015185615bb4565b51670de0b6b3a7640000900490565b801580615dca5750604051636eb1769f60e11b81526001600160a01b0384169063dd62ed3e90615d78903090869060040161804f565b60206040518083038186803b158015615d9057600080fd5b505afa158015615da4573d6000803e3d6000fd5b505050506040513d601f19601f82011682018060405250615dc891908101906172e0565b155b615de65760405162461bcd60e51b815260040161067090618344565b6040516122a790849063095ea7b360e01b90615cdb9086908690602401618113565b6000838301828582101561368b5760405162461bcd60e51b815260040161067091906181f3565b8051615e4d5760405162461bcd60e51b815260040161067090618234565b6001600160a01b038216615e735760405162461bcd60e51b8152600401610670906182d4565b6001600160a01b0382166000908152602f60205260409020546001600160601b038116615ea357615ea38361628b565b815160005b81811015611624576000848281518110615ebe57fe5b6020908102919091018101516001600160e01b031981166000908152602e9092526040909120549091506001600160a01b03168015615f0f5760405162461bcd60e51b815260040161067090618374565b615f1a82868961632e565b505060019283019201615ea8565b8051615f465760405162461bcd60e51b815260040161067090618234565b6001600160a01b038216615f6c5760405162461bcd60e51b8152600401610670906182d4565b6001600160a01b0382166000908152602f60205260409020546001600160601b038116615f9c57615f9c8361628b565b815160005b81811015611624576000848281518110615fb757fe5b6020908102919091018101516001600160e01b031981166000908152602e9092526040909120549091506001600160a01b0390811690871681141561600e5760405162461bcd60e51b8152600401610670906183a4565b61601881836163cd565b61602382868961632e565b505060019283019201615fa1565b8051806160505760405162461bcd60e51b815260040161067090618234565b6001600160a01b038316156160775760405162461bcd60e51b8152600401610670906183b4565b60005b81811015611a9957600083828151811061609057fe5b6020908102919091018101516001600160e01b031981166000908152602e9092526040909120549091506001600160a01b03166160cd81836163cd565b505060010161607a565b6000816401000000008410615c7f5760405162461bcd60e51b815260040161067091906181f3565b600081848411156161235760405162461bcd60e51b815260040161067091906181f3565b505050900390565b6000611e5783836040518060400160405280600e81526020016d646976696465206279207a65726f60901b81525061668e565b600083158061616b575082155b1561617857506000611e57565b8383028385828161618557fe5b0414839061368b5760405162461bcd60e51b815260040161067091906181f3565b6161b8826001600160a01b03166166c2565b6161d45760405162461bcd60e51b815260040161067090618424565b60006060836001600160a01b0316836040516161f09190618007565b6000604051808303816000865af19150503d806000811461622d576040519150601f19603f3d011682016040523d82523d6000602084013e616232565b606091505b5091509150816162545760405162461bcd60e51b815260040161067090618414565b805115611a99578080602001905161626f919081019061720d565b611a995760405162461bcd60e51b815260040161067090618244565b6162ca816040518060400160405280601e81526020017f4469616d6f6e643a204e657720666163657420686173206e6f20636f646500008152506166fb565b603080546001600160a01b039092166000818152602f60205260408120600190810185905584018355919091527f6ff97a59c90d62cc7236ba3a37cd85351bf564556780cf8c1157a220f31f0cbb90910180546001600160a01b0319169091179055565b6001600160e01b031983166000818152602e6020818152604080842080546001600160601b03909816600160a01b026001600160a01b0398891617815595909616808452602f825295832080546001810182559084528184206008820401805460e09990991c60046007909316929092026101000a91820263ffffffff909202199098161790965591905290925281546001600160a01b031916179055565b6001600160a01b0382166163f35760405162461bcd60e51b815260040161067090618254565b6001600160e01b031981166000908152602e60209081526040808320546001600160a01b0386168452602f90925290912054600160a01b9091046001600160601b0316906000190180821461651c576001600160a01b0384166000908152602f6020526040812080548390811061646657fe5b600091825260208083206008830401546001600160a01b0389168452602f9091526040909220805460079092166004026101000a90920460e01b9250829190859081106164af57fe5b600091825260208083206008830401805463ffffffff60079094166004026101000a938402191660e09590951c929092029390931790556001600160e01b0319929092168252602e90526040902080546001600160a01b0316600160a01b6001600160601b038516021790555b6001600160a01b0384166000908152602f6020526040902080548061653d57fe5b60008281526020808220600860001990940193840401805463ffffffff600460078716026101000a0219169055919092556001600160e01b031985168252602e9052604081205580611a99576030546001600160a01b0385166000908152602f60205260409020600101546000199091019080821461662c576000603083815481106165c557fe5b600091825260209091200154603080546001600160a01b0390921692508291849081106165ee57fe5b600091825260208083209190910180546001600160a01b0319166001600160a01b03948516179055929091168152602f909152604090206001018190555b603080548061663757fe5b60008281526020808220830160001990810180546001600160a01b03191690559092019092556001600160a01b0388168252602f9052604081209061667c8282616782565b60018201600090555050505050505050565b600081836166af5760405162461bcd60e51b815260040161067091906181f3565b508284816166b957fe5b04949350505050565b6000813f7fc5d2460186f7233c927e7db2dcc703c0e500b653ca82273b7bfad8045d85a470818114801590611713575050151592915050565b813b8181611a995760405162461bcd60e51b815260040161067091906181f3565b6040518060200160405280600081525090565b60408051808201909152600081526060602082015290565b604080518082019091526000808252602082015290565b8154818355818111156122a7576000838152602090206122a79181019083016167a3565b5080546000825560070160089004906000526020600020908101906115ab91905b61135491905b808211156167bd57600081556001016167a9565b5090565b8035612e8381618603565b8051612e8381618603565b60008083601f8401126167e957600080fd5b5081356001600160401b0381111561680057600080fd5b6020830191508360208202830111156132c557600080fd5b600082601f83011261682957600080fd5b813561683c61683782618510565b6184ea565b9150818183526020840193506020810190508385602084028201111561686157600080fd5b60005b8381101561688d578161687788826167c1565b8452506020928301929190910190600101616864565b5050505092915050565b600082601f8301126168a857600080fd5b81356168b661683782618510565b915081818352602084019350602081019050838560208402820111156168db57600080fd5b60005b8381101561688d57816168f188826169ea565b84525060209283019291909101906001016168de565b600082601f83011261691857600080fd5b813561692661683782618510565b9150818183526020840193506020810190508385602084028201111561694b57600080fd5b60005b8381101561688d57816169618882616a00565b845250602092830192919091019060010161694e565b600082601f83011261698857600080fd5b813561699661683782618510565b81815260209384019390925082018360005b8381101561688d57813586016169be8882616a21565b84525060209283019291909101906001016169a8565b8035612e8381618617565b8051612e8381618617565b8035612e8381618620565b8051612e8381618629565b8035612e8381618629565b8035612e8381618632565b8035612e838161863f565b600060608284031215616a3357600080fd5b616a3d60606184ea565b90506000616a4b84846167c1565b8252506020616a5c84848301616a16565b60208301525060408201356001600160401b03811115616a7b57600080fd5b616a8784828501616897565b60408301525092915050565b8035612e838161864c565b8051612e838161864c565b600060208284031215616abb57600080fd5b600061171384846167c1565b600060208284031215616ad957600080fd5b600061171384846167cc565b60008060408385031215616af857600080fd5b6000616b0485856167c1565b9250506020616b15858286016167c1565b9150509250929050565b600080600080600060a08688031215616b3757600080fd5b6000616b4388886167c1565b9550506020616b54888289016167c1565b9450506040616b65888289016167c1565b9350506060616b76888289016167c1565b9250506080616b8788828901616a93565b9150509295509295909350565b60008060008060008060c08789031215616bad57600080fd5b6000616bb989896167c1565b9650506020616bca89828a016167c1565b9550506040616bdb89828a016167c1565b9450506060616bec89828a016167c1565b9350506080616bfd89828a01616a93565b92505060a0616c0e89828a01616a93565b9150509295509295509295565b60008060008060808587031215616c3157600080fd5b6000616c3d87876167c1565b9450506020616c4e878288016167c1565b9350506040616c5f878288016167c1565b9250506060616c7087828801616a93565b91505092959194509250565b600080600080600060a08688031215616c9457600080fd5b6000616ca088886167c1565b9550506020616cb1888289016167c1565b9450506040616cc2888289016167c1565b9350506060616b7688828901616a93565b600080600060608486031215616ce857600080fd5b6000616cf486866167c1565b9350506020616d05868287016167c1565b9250506040616d16868287016169d4565b9150509250925092565b600080600060608486031215616d3557600080fd5b6000616d4186866167c1565b9350506020616d52868287016167c1565b9250506040616d1686828701616a93565b60008060008060808587031215616d7957600080fd5b6000616d8587876167c1565b9450506020616d96878288016167c1565b9350506040616c5f87828801616a93565b60008060408385031215616dba57600080fd5b6000616dc685856167c1565b92505060208301356001600160401b03811115616de257600080fd5b616b1585828601616907565b60008060408385031215616e0157600080fd5b6000616e0d85856167c1565b9250506020616b15858286016169d4565b60008060408385031215616e3157600080fd5b6000616e3d85856167c1565b9250506020616b1585828601616a00565b60008060408385031215616e6157600080fd5b6000616e6d85856167c1565b9250506020616b1585828601616a0b565b60008060408385031215616e9157600080fd5b6000616e9d85856167c1565b9250506020616b1585828601616a93565b600080600060608486031215616ec357600080fd5b6000616ecf86866167c1565b9350506020616d5286828701616a93565b60008060208385031215616ef357600080fd5b82356001600160401b03811115616f0957600080fd5b616f15858286016167d7565b92509250509250929050565b600080600080600060608688031215616f3957600080fd5b85356001600160401b03811115616f4f57600080fd5b616f5b888289016167d7565b955095505060208601356001600160401b03811115616f7957600080fd5b616f85888289016167d7565b93509350506040616b87888289016169d4565b60008060008060808587031215616fae57600080fd5b84356001600160401b03811115616fc457600080fd5b616fd087828801616818565b94505060208501356001600160401b03811115616fec57600080fd5b616ff887828801616907565b9350506040617009878288016169d4565b9250506060616c70878288016169d4565b600080600080600060a0868803121561703257600080fd5b85356001600160401b0381111561704857600080fd5b61705488828901616818565b95505060208601356001600160401b0381111561707057600080fd5b61707c88828901616907565b945050604061708d888289016169d4565b935050606061709e888289016169d4565b9250506080616b87888289016169d4565b600080600080604085870312156170c557600080fd5b84356001600160401b038111156170db57600080fd5b6170e7878288016167d7565b945094505060208501356001600160401b0381111561710557600080fd5b617111878288016167d7565b95989497509550505050565b6000806000806000806060878903121561713657600080fd5b86356001600160401b0381111561714c57600080fd5b61715889828a016167d7565b965096505060208701356001600160401b0381111561717657600080fd5b61718289828a016167d7565b945094505060408701356001600160401b038111156171a057600080fd5b6171ac89828a016167d7565b92509250509295509295509295565b6000602082840312156171cd57600080fd5b81356001600160401b038111156171e357600080fd5b61171384828501616977565b60006020828403121561720157600080fd5b600061171384846169d4565b60006020828403121561721f57600080fd5b600061171384846169df565b60006020828403121561723d57600080fd5b600061171384846169ea565b60006020828403121561725b57600080fd5b600061171384846169f5565b60006020828403121561727957600080fd5b60006117138484616a00565b6000806040838503121561729857600080fd5b6000616e9d8585616a00565b6000602082840312156172b657600080fd5b60006117138484616a0b565b6000602082840312156172d457600080fd5b60006117138484616a93565b6000602082840312156172f257600080fd5b60006117138484616a9e565b6000806040838503121561731157600080fd5b600061731d8585616a9e565b9250506020616b1585828601616a9e565b60008060006060848603121561734357600080fd5b600061734f8686616a9e565b935050602061736086828701616a9e565b9250506040616d1686828701616a9e565b6000806000806080858703121561738757600080fd5b60006173938787616a9e565b94505060206173a487828801616a9e565b93505060406173b587828801616a9e565b9250506060616c7087828801616a9e565b60006173d28383617425565b505060200190565b60006173d28383617697565b60006173d283836176cf565b6000611e578383617f78565b6000611e578383617fb7565b60006173d28383617fec565b61741f816185a2565b82525050565b61741f81618543565b600061743982618536565b617443818561853a565b935061744e83618530565b8060005b8381101561747c57815161746688826173c6565b975061747183618530565b925050600101617452565b509495945050505050565b600061749282618536565b61749c818561853a565b93506174a783618530565b8060005b8381101561747c5781516174bf88826173da565b97506174ca83618530565b9250506001016174ab565b60006174e082618536565b6174ea818561853a565b93506174f583618530565b8060005b8381101561747c57815161750d88826173da565b975061751883618530565b9250506001016174f9565b600061752e82618536565b617538818561853a565b935061754383618530565b8060005b8381101561747c57815161755b88826173e6565b975061756683618530565b925050600101617547565b600061757c82618536565b617586818561853a565b93508360208202850161759885618530565b8060005b858110156175d257848403895281516175b585826173f2565b94506175c083618530565b60209a909a019992505060010161759c565b5091979650505050505050565b60006175ea82618536565b6175f4818561853a565b93508360208202850161760685618530565b8060005b858110156175d2578484038952815161762385826173fe565b945061762e83618530565b60209a909a019992505060010161760a565b600061764b82618536565b617655818561853a565b935061766083618530565b8060005b8381101561747c578151617678888261740a565b975061768383618530565b925050600101617664565b61741f8161854e565b61741f81618553565b60006176ab82618536565b6176b581856117c9565b93506176c58185602086016185c3565b9290920192915050565b61741f81618560565b61741f816185ad565b61741f816185b8565b60006176f582618536565b6176ff818561853a565b935061770f8185602086016185c3565b617718816185ef565b9093019392505050565b600061772f60198361853a565b7f6d61726b657420737570706c7920636170207265616368656400000000000000815260200192915050565b600061776860118361853a565b7036b4b73a103132b430b6331032b93937b960791b815260200192915050565b600061779560108361853a565b6f1858dd1a5bdb881a5cc81c185d5cd95960821b815260200192915050565b60006177c1602b8361853a565b7f4c69624469616d6f6e644375743a204e6f2073656c6563746f727320696e206681526a1858d95d081d1bc818dd5d60aa1b602082015260400192915050565b600061780e602a8361853a565b7f5361666542455032303a204245503230206f7065726174696f6e20646964206e8152691bdd081cdd58d8d9595960b21b602082015260400192915050565b600061785a60378361853a565b7f4c69624469616d6f6e644375743a2043616e27742072656d6f76652066756e6381527f74696f6e207468617420646f65736e2774206578697374000000000000000000602082015260400192915050565b60006178b960128361853a565b711c1c9bdd1bd8dbdb081a5cc81c185d5cd95960721b815260200192915050565b60006178e7600d8361853a565b6c159052481a5cc81c185d5cd959609a1b815260200192915050565b6000617910600f8361853a565b6e70657263656e74203e3d203130302560881b815260200192915050565b600061793b60158361853a565b7463616e2774206265207a65726f206164647265737360581b815260200192915050565b600061796c60278361853a565b7f4c69624469616d6f6e644375743a20496e636f727265637420466163657443758152663a20b1ba34b7b760c91b602082015260400192915050565b60006179b560198361853a565b7f6f6e6c7920756e6974726f6c6c65722061646d696e2063616e00000000000000815260200192915050565b60006179ee600d8361853a565b6c185b1c9958591e481859191959609a1b815260200192915050565b6000617a17602c8361853a565b7f4c69624469616d6f6e644375743a204164642066616365742063616e2774206281526b65206164647265737328302960a01b602082015260400192915050565b6000617a6560208361853a565b7f4469616d6f6e643a2046756e6374696f6e20646f6573206e6f74206578697374815260200192915050565b6000617a9e601e8361853a565b7f6f6c642076616c75652069732073616d65206173206e65772076616c75650000815260200192915050565b6000617ad760158361853a565b7439b2b73232b91036bab9ba103132903b2a37b5b2b760591b815260200192915050565b6000617b0860108361853a565b6f0d2dcc6cadce8d2ecca40784062ca62760831b815260200192915050565b6000617b3460198361853a565b7f6765744163636f756e74536e617073686f74206661696c656400000000000000815260200192915050565b6000617b6d600e8361853a565b6d1b9bdd08185d5d1a1bdc9a5e995960921b815260200192915050565b6000617b9760368361853a565b7f5361666542455032303a20617070726f76652066726f6d206e6f6e2d7a65726f81527520746f206e6f6e2d7a65726f20616c6c6f77616e636560501b602082015260400192915050565b6000617bef60088361853a565b6718985b9adc9d5c1d60c21b815260200192915050565b6000617c1360228361853a565b7f6f6c6420616464726573732069732073616d65206173206e6577206164647265815261737360f01b602082015260400192915050565b6000617c5760358361853a565b7f4c69624469616d6f6e644375743a2043616e2774206164642066756e6374696f8152746e207468617420616c72656164792065786973747360581b602082015260400192915050565b6000617cae60168361853a565b7506d61726b657420737570706c792063617020697320360541b815260200192915050565b6000617ce0600e8361853a565b6d37b7363c9030b236b4b71031b0b760911b815260200192915050565b6000617d0a60388361853a565b7f4c69624469616d6f6e644375743a2043616e2774207265706c6163652066756e81527f6374696f6e20776974682073616d652066756e6374696f6e0000000000000000602082015260400192915050565b6000617d6960368361853a565b7f4c69624469616d6f6e644375743a2052656d6f76652066616365742061646472815275657373206d757374206265206164647265737328302960501b602082015260400192915050565b6000617dc160118361853a565b7072656465656d546f6b656e73207a65726f60781b815260200192915050565b6000617dee600d8361853a565b6c1858d8d95cdcc819195b9a5959609a1b815260200192915050565b6000617e1760198361853a565b7f6d61726b657420626f72726f7720636170207265616368656400000000000000815260200192915050565b6000617e5060068361853a565b656e6f2078767360d01b815260200192915050565b6000617e72600d8361853a565b6c1a5b9d985b1a59081a5b9c1d5d609a1b815260200192915050565b6000617e9b60208361853a565b7f5361666542455032303a206c6f772d6c6576656c2063616c6c206661696c6564815260200192915050565b6000617ed4601f8361853a565b7f5361666542455032303a2063616c6c20746f206e6f6e2d636f6e747261637400815260200192915050565b6000617f0d60118361853a565b701b585c9ad95d081b9bdd081b1a5cdd1959607a1b815260200192915050565b6000617f3a600b8361853a565b6a109b1858dadb1a5cdd195960aa1b815260200192915050565b80516040830190617f658482617425565b506020820151611a996020850182617ffe565b80516000906060840190617f8c8582617425565b506020830151617f9f60208601826176d8565b506040830151848203604086015261261f82826174d5565b80516000906040840190617fcb8582617425565b506020830151848203602086015261261f82826174d5565b61741f81618581565b61741f81611354565b61741f8161858d565b61741f81618596565b6000611e5782846176a0565b60208101612e838284617425565b60208101612e838284617416565b6040810161803d8285617416565b818103602083015261171381846176ea565b6040810161805d8285617425565b611e576020830184617425565b608081016180788287617425565b6180856020830186617425565b6180926040830185617425565b61261f6060830184617fec565b60a081016180ad8288617425565b6180ba6020830187617425565b6180c760408301866176cf565b6180d46060830185617fec565b6180e16080830184617fec565b9695505050505050565b606081016180f98286617425565b6181066020830185617425565b6117136040830184617fec565b604081016181218285617425565b611e576020830184617fec565b60208082528101611e57818461742e565b60208082528101611e578184617487565b60208082528101611e578184617523565b60208082528101611e578184617571565b60208082528101611e5781846175df565b60208082528101611e578184617640565b60208101612e83828461768e565b606081016181b0828661768e565b6181bd6020830185617fec565b611713604083018461768e565b60208101612e8382846176cf565b604081016181e682856176cf565b611e5760208301846176cf565b60208082528101611e5781846176ea565b60208082528101612e8381617722565b60208082528101612e838161775b565b60208082528101612e8381617788565b60208082528101612e83816177b4565b60208082528101612e8381617801565b60208082528101612e838161784d565b60208082528101612e83816178ac565b60208082528101612e83816178da565b60208082528101612e8381617903565b60208082528101612e838161792e565b60208082528101612e838161795f565b60208082528101612e83816179a8565b60208082528101612e83816179e1565b60208082528101612e8381617a0a565b60208082528101612e8381617a58565b60208082528101612e8381617a91565b60208082528101612e8381617aca565b60208082528101612e8381617afb565b60208082528101612e8381617b27565b60208082528101612e8381617b60565b60208082528101612e8381617b8a565b60208082528101612e8381617be2565b60208082528101612e8381617c06565b60208082528101612e8381617c4a565b60208082528101612e8381617ca1565b60208082528101612e8381617cd3565b60208082528101612e8381617cfd565b60208082528101612e8381617d5c565b60208082528101612e8381617db4565b60208082528101612e8381617de1565b60208082528101612e8381617e0a565b60208082528101612e8381617e43565b60208082528101612e8381617e65565b60208082528101612e8381617e8e565b60208082528101612e8381617ec7565b60208082528101612e8381617f00565b60208082528101612e8381617f2d565b60408101612e838284617f54565b60208101612e838284617fe3565b6040810161847e8285617fe3565b611e576020830184617ff5565b60208101612e838284617fec565b604081016181218285617fec565b606081016184b58286617fec565b6184c26020830185617fec565b61171360408301846176e1565b606081016184dd8286617fec565b6181066020830185617fec565b6040518181016001600160401b038111828210171561850857600080fd5b604052919050565b60006001600160401b0382111561852657600080fd5b5060209081020190565b60200190565b5190565b90815260200190565b6000612e8382618575565b151590565b6001600160e01b03191690565b6000612e8382618543565b806117c9816185f9565b6001600160a01b031690565b6001600160e01b031690565b63ffffffff1690565b6001600160601b031690565b6000612e8382618560565b6000612e838261856b565b6000612e8382611354565b60005b838110156185de5781810151838201526020016185c6565b83811115611a995750506000910152565b601f01601f191690565b600381106115ab57fe5b61860c81618543565b81146115ab57600080fd5b61860c8161854e565b61860c81618553565b61860c81618560565b600981106115ab57600080fd5b600381106115ab57600080fd5b61860c8161135456fe5f736574466f726365644c69717569646174696f6e466f725573657228616464726573732c616464726573732c626f6f6c295f736574416374696f6e7350617573656428616464726573735b5d2c75696e74385b5d2c626f6f6c295f7365744c69717569646174696f6e496e63656e746976652875696e74323536295f7365744d61726b6574537570706c794361707328616464726573735b5d2c75696e743235365b5d295f736574466f726365644c69717569646174696f6e28616464726573732c626f6f6c295f7365744d61726b6574426f72726f774361707328616464726573735b5d2c75696e743235365b5d295f736574436f6c6c61746572616c466163746f7228616464726573732c75696e7432353629a365627a7a7231582044a3917b1d3118427d884a97d1c078dd5f9c416477afc52fbc06ce75fa8e83a06c6578706572696d656e74616cf564736f6c63430005100040",
  "linkReferences": {},
  "deployedLinkReferences": {}
}